:020000040800F2
:10000000B8060020C9000008F91F00089B1F00085F
:1000100000000000000000000000000000000000E0
:10002000000000000000000000000000FD1F0008AC
:1000300000000000000000009F1F0008614500084C
:10004000DB00000800000000DB000008DB00000807
:10005000DB000008DB000008DB000008DB00000814
:1000600000000000DB000008DB000008DB000008E7
:10007000DB000008DB000008DB00000800000000D7
:10008000DB000008DB00000800000000DB000008C7
:10009000DB000008DB000008DB000008DB000008D4
:1000A000DB000008DB000008DB000008AD510008A1
:1000B000BD5100080348854600F05EF9004800473E
:1000C000815A0008B80600200448804704480047C9
:1000D000FEE7FEE7FEE7FEE7FEE7FEE7FF1F00089C
:1000E000B500000830B50B4601460020202201244F
:1000F00009E00D46D5409D4205D31D469540491B5C
:100100002546954040191546521E002DF1DC30BDA4
:10011000F0B51FB40646002082B005464024019188
:1001200000901BE0019922460F46304600F05DF832
:10013000049A059B801A994110D31046194622460D
:1001400000F0B1F8361A8F410197224601200021B4
:10015000009F00F0A8F838184D4100902046641E1A
:100160000028DFDC019B00982946324607B0F0BD2D
:10017000F0B51FB486B00020009001900290069860
:10018000069980B204900798090C020400141143E8
:1001900007900027089D099806913E463C4603902B
:1001A0000398A9B20204000C039004982D0C154387
:1001B00048430021224600F076F8C71971411034F7
:1001C0000E46402CECDB3846029A00F06CF8009AA0
:1001D000019B8018009059410298019110300290C3
:1001E0004028CCDB00980BB0F0BD10B5202A04DB12
:1001F0000846203AD040002110BD0B46D340D040E5
:100200002024A21A91400843194610BDD2B201E041
:100210000270401C491EFBD270470022F6E710B561
:1002200013460A4604461946FFF7F0FF204610BD64
:10023000F7B582B00F460026029C06F0DBFB00906B
:10024000006801902578641C002D05D000F03CF872
:100250000068405DC007F5D12B2D02D02D2D1CD09C
:10026000641E00980021016039462046049A00F07F
:100270002FF80146002F04D03868A04201D102981F
:1002800038600098006802280BD00098019A02603C
:10029000700506D5484205B0F0BD01208002064336
:1002A000DFE70846F7E710B5202A04DB0146203ACD
:1002B0009140002010BD914020239C1A0346E3404A
:1002C0001943904010BD0000004870479C6A000828
:1002D000F7B582B0029C00272078641C1546019770
:1002E000302802D0002D15D015E020780127641C9D
:1002F000782804D0582802D0002D09D00BE0002D1A
:1003000001D0102D07D1002710252078641C02E0B1
:10031000082500E00A250026009610E00099012734
:1003200069430818020C294680B2714300908E1868
:100330003804864201D3012001902078641C2946AC
:1003400000F02CF80028E9DA0398002805D0002FE7
:1003500001D0641E00E0029C04600198002806D0D1
:1003600006F048FB02210160C81E05B0F0BD0099EF
:1003700030040843F9E70000064C0125064E05E06D
:10038000E36807CC2B430C3C98471034B442F7D3B6
:10039000FFF794FED86A0008F86A00083A2800D2ED
:1003A0003038202302469A43412A01D31046373879
:1003B000884201D30020C0437047000080B582B05E
:1003C000EFF3108072B601900A4800F067F80A480F
:1003D00000F0E0FF094802F095FD094802F092FDA7
:1003E000084801F0E1FC00F0FFF8009001F031F95D
:1003F000FFE7FEE72400002040000020C4000020AA
:100400004C010020A400002080B582B0009000982C
:10041000002804D1FFE701A80121017039E000980C
:10042000407D002807D1FFE7009800210175009862
:1004300000F044F8FFE70098022141750098007928
:10044000002806D1FFE7009800680021C943016138
:1004500004E00098816800680161FFE70098006887
:100460008068602188430099CA68104309688860E1
:100470000098006880688021884300990A691043C9
:100480000968886000980121417501A80021017068
:10049000FFE701A8007802B080BD000081B00090A5
:1004A000009800681049884206D1FFE70F480168AC
:1004B000402291430160FFE701B0704782B0019094
:1004C00001980068084988420CD1FFE7FFE7074818
:1004D00001684022114301600068104000900098BC
:1004E000FFE7FFE702B070470030024014100240FF
:1004F00082B0009000982121405C02280DD0FFE7D7
:10050000009804218163FFE70098202100224254D3
:10051000FFE701A8012101701FE000980068016851
:100520000E22914301600098006801680122914306
:1005300001600098016C8A40C06B4260FFE7009840
:10054000212101224254FFE7009820210022425439
:10055000FFE701A800210170FFE701A8007802B0C1
:10056000704780B582B00190684600210170019803
:100570002121405C022807D0FFE701980421816314
:1005800068460121017024E00198006801680E228C
:100590009143016001980068016801229143016064
:1005A0000198016C13468B40C06B43600198212178
:1005B0004254FFE70198202100224254FFE70198AE
:1005C000406B002804D0FFE70198416B8847FFE7A4
:1005D000FFE76846007802B080BD81B000900098C7
:1005E000806B01B07047000080B582B00020C1432D
:1005F000074A11601060074A11601060064A1160D6
:100600001060019000F0DEFF019802B080BDC0468E
:10061000101002400C100240281002408BB00A90CB
:10062000099100200890FFE709980899C840002820
:1006300000D1A1E00998089901228A401040079052
:100640000798002800D193E00898032188434B497C
:100650004058069008988007000F0F2181400698A7
:100660000840069006980A990922D2069142059000
:1006700003D1FFE70020049022E00A98F349884262
:1006800003D1FFE70120039017E00A98F049884260
:1006900003D1FFE7022002900CE00A98ED49032203
:1006A000052388420193009201D0019800900098A0
:1006B0000290FFE702980390FFE703980490FFE79A
:1006C000049808998907090F88400599814223D128
:1006D000FFE70798E3490A6882430A600798E04900
:1006E0000A6882430A600798DC490A6882430A6004
:1006F0000798D9490A6882430A6008988007000F62
:100700000F21814006910698089903229143CE4A11
:100710008B5883438B50FFE70898400003210A461B
:1007200082400A9803689343036008984207D20EF8
:100730000F2393400A9AC00880001018026A9A4357
:100740000262089840000A4682400A98C3689343B0
:10075000C3600898012282400A984368934343602B
:100760000898400081400A9882688A438260FFE7C7
:100770000898401C089057E70BB0704708000140EC
:100780008BB00A90099100200890FFE70998006853
:100790000899C840002800D152E1099800680899DA
:1007A00001228A40104007900798002800D143E1B9
:1007B0000998406803210840012807D0FFE70998FD
:1007C00040680321084002282CD1FFE70A9880687E
:1007D00006900898400003218140069888430690BF
:1007E0000998C06808994900884006990143069114
:1007F00006980A9988600A9840680690089801212E
:100800008140069888430690099840681021084066
:1008100000090899884006990143069106980A99AB
:100820004860FFE70998406803210840032816D074
:10083000FFE70A98C06806900898400003218140AD
:10084000069888430690099880680899490088406E
:1008500006990143069106980A99C860FFE709982E
:10086000406803210840022820D1FFE70A98089930
:10087000C90889004018006A069008984007C00E11
:100880000F218140069888430690099800690899CD
:100890004907C90E884006990143069106980A99AE
:1008A000089AD208920089180862FFE70A9800683F
:1008B00006900898400003210A468240069890431B
:1008C00006900998406808400899490088400699B0
:1008D0000143069106980A99086009988079800773
:1008E000002800D1A7E0FFE7564801680122114324
:1008F00001600068104005900598FFE70898032103
:10090000884351494058069008988007000F0F21EE
:1009100081400698884306900A980921C9068842B2
:1009200003D1FFE70020049022E00A98474988425B
:1009300003D1FFE70120039017E00A984449884259
:1009400003D1FFE7022002900CE00A9841490322FC
:10095000052388420193009201D0019800900098ED
:100960000290FFE702980390FFE703980490FFE7E7
:10097000049808998907090F884006990143069150
:1009800006980899032291432F4A885032480068FC
:100990000690079806998143069109988079C006C8
:1009A000002805D5FFE70798069901430691FFE760
:1009B0000698294908602948006806900798069912
:1009C00081430691099880798006002805D5FFE7C4
:1009D0000798069901430691FFE706981F490860AA
:1009E0001F48006806900798069981430691099868
:1009F00080798007002805D5FFE70798069901430D
:100A00000691FFE7069816490860164800680690A8
:100A1000079806998143069109988079C0070028B4
:100A200005D0FFE70798069901430691FFE706986E
:100A30000C490860FFE7FFE70898401C0890A5E60E
:100A40000BB0704718100240080001400004004835
:100A500000080048000C0048080401400C04014054
:100A6000040401400004014083B00A46029001A83A
:100A70000180029909690088014204D0FFE76846B5
:100A80000121017003E0684600210170FFE768461C
:100A9000007803B0704710B583B013460C4602903F
:100AA00001A80180684602700078002805D0FFE7A1
:100AB00001A800880299886104E001A800880299D1
:100AC0008862FFE703B010BD014800687047C04668
:100AD000B002002010B583B001900091019841212F
:100AE000405C202839D1FFE7FFE701984021405CB6
:100AF000012804D1FFE702A80221017031E001982A
:100B0000402101224254FFE7FFE7019841212422BE
:100B1000425401980068026801239A4302600198D8
:100B2000006802681C03A24302600098019A1268E0
:100B30001468044314600198006802681A43026054
:100B4000019820224254FFE701984021002242549C
:100B5000FFE702A80021017003E002A80221017052
:100B6000FFE702A8007803B010BD84B002900191A5
:100B700002984121405C20283FD1FFE7FFE702981F
:100B80004021405C012804D1FFE703A80221017045
:100B900037E00298402101224254FFE7FFE7029824
:100BA00041212422425402980068026801239A439A
:100BB0000260029800680068009000980F221202FC
:100BC0009043009001980002009A0243009200981E
:100BD000029A126810600298006802681A43026064
:100BE000029820224254FFE70298402100224254FA
:100BF000FFE703A80021017003E003A802210170B0
:100C0000FFE703A8007804B07047000080B582B009
:100C100000900098002804D1FFE701A8012101708D
:100C200074E000984121405C002808D1FFE700985B
:100C3000402100224254009800F0C8FBFFE70098D2
:100C40004121242242540098006801680122914306
:100C50000160009841680F231B06994300680161F9
:100C6000009800688168D203914381600098C06851
:100C7000012808D1FFE7009881680122D2031143BF
:100C80000068816007E00098816821229202114388
:100C900000688160FFE70098C068022806D1FFE77E
:100CA000009800680121C9024160FFE700980068D0
:100CB0004168184A1143416000980068C1680122E8
:100CC000D3039943C160009801694369194383695B
:100CD0001B0219430068C1600098C169036A194387
:100CE0000068016000980068016811430160009885
:100CF000002141640098412220238354009801631D
:100D000000984222815401A80170FFE701A80078F1
:100D100002B080BD0080000210B58CB00C460A9075
:100D200009A8018008920793002005900A984121A4
:100D3000405C202800D014E10A980068806980B2E5
:100D4000C00B012804D1FFE70BA8022101700CE1C0
:100D5000FFE70A984021405C012804D1FFE70BA877
:100D60000221017001E10A98402101224254FFE76B
:100D7000FFE70A984121242242540A980021416445
:100D8000FFE70A98C068012808D1FFE709A8008892
:100D90007849084079494018029007E009A800887E
:100DA00074490840744940180290FFE702980A9974
:100DB00009684860FFF788FE06900A980068806915
:100DC00020210840400904A908700A980068806939
:100DD00010210840000903A90870FFE704A8007863
:100DE00000210028019106D1FFE703A800784142C5
:100DF00048410190FFE70198C007002835D0FFE780
:100E00000798401C00281FD0FFE7FFF75DFE0699FA
:100E1000401A0799884204D8FFE70798002812D1A2
:100E2000FFE70A984121202242540A98416C11435D
:100E30004164FFE70A98402100224254FFE70BA8D3
:100E40000121017091E0FFE70A9800688069202184
:100E50000840400904A908700A98006880691021B8
:100E60000840000903A90870B8E70A98006880697B
:100E7000102108400009002820D1FFE70A98079BAD
:100E8000069900912021002202F08AFC002804D05B
:100E9000FFE70BA80121017067E00A980068202194
:100EA000C1610A9841228154FFE70A98402100223B
:100EB0004254FFE70BA80021017056E00A98079BF7
:100EC000069900912021002202F06AFC002804D03B
:100ED000FFE70BA80121017047E00A980068102184
:100EE000C1610A9800682021C161FFE7059808994F
:100EF00088421BD1FFE70A980068416801229203EB
:100F0000114341600A98079B069900912021002215
:100F100002F046FC002804D0FFE70BA80121017075
:100F200023E00A9800682021C161FFE70598401C72
:100F30000590FFE705980899884200D221E70A98B2
:100F40004121202242540A98416C11434164FFE739
:100F50000A98402100224254FFE70BA801210170AA
:100F600003E00BA802210170FFE70BA800780CB08A
:100F700010BDC046FF030000002800020020000250
:100F800070B588B00C9C1D460E46069005A80180E1
:100F9000049203A8038006984121405C202800D0D9
:100FA000E8E0FFE706984021405C012804D1FFE714
:100FB00007A802210170E1E0069840210122425475
:100FC000FFE7FFE7FFF780FD029006980299009186
:100FD0000121CA03192301911146019A02F0E0FB95
:100FE000002804D0FFE707A801210170C6E0069899
:100FF000412122224254069842211022425406984E
:10100000002141640498069A50620398069A50851C
:10101000069841630698408D000A00280FD0FFE72C
:101020000698FF210185069805A909882822825C77
:10103000544B009301231B0602F086FB0FE0069839
:10104000408D06990885069805A909882822825CA2
:101050004C4B009301235B0602F076FBFFE7FFE7B2
:101060000698408D00285ED0FFE706980C99029AFA
:1010700002F0ECFB002804D0FFE707A80121017073
:101080007CE006980068406A0699496A08700698EC
:10109000416A491C41620698018D491E01850698E6
:1010A000418D491E41850698408D00283AD0FFE7C2
:1010B0000698008D002835D1FFE706980C9B029911
:1010C00000918021002202F06BFB002804D0FFE792
:1010D00007A80121017051E00698408D000A002800
:1010E0000FD0FFE70698FF210185069805A909881A
:1010F0002822825C0023009301231B0602F024FBBC
:101100000FE00698408D06990885069805A909887C
:101110002822825C0023009301235B0602F014FB6B
:10112000FFE7FFE79CE706980C99029A02F028FC7B
:10113000002804D0FFE707A8012101701EE00698EF
:1011400000682021C161069800684268904B1A40EF
:10115000426006984122815406984221002242545E
:10116000FFE70698402100224254FFE707A800212C
:10117000017003E007A802210170FFE707A80078CB
:1011800008B070BD0024008070B588B00C9C1D466E
:101190000E46069005A80180049203A803800698D5
:1011A0004121405C202800D0E7E0FFE7069840217D
:1011B000405C012804D1FFE707A802210170E0E0AC
:1011C0000698402101224254FFE7FFE7FFF77CFC2D
:1011D00002900698029900910121CA0319230191F6
:1011E0001146019A02F0DCFA002804D0FFE707A8B4
:1011F00001210170C5E00698412121224254069840
:101200004221102242540698002141640498069A13
:1012100050620398069A5085069841630698408D5F
:10122000000A00280FD0FFE70698FF2101850698E5
:1012300005A909882822825C544B009301231B06D0
:1012400002F082FA0FE00698408D0699088506980C
:1012500005A909882822825C4C4B009301235B0678
:1012600002F072FAFFE7FFE70698408D00285DD094
:10127000FFE706980C99029A02F0D2FB002804D0EE
:10128000FFE707A8012101707BE00698416A097811
:10129000006881620698416A491C41620698418D46
:1012A000491E41850698018D491E01850698408D8D
:1012B00000283AD0FFE70698008D002835D1FFE7D7
:1012C00006980C9B029900918021002202F068FA96
:1012D000002804D0FFE707A80121017051E006981B
:1012E000408D000A00280FD0FFE70698FF210185F6
:1012F000069805A909882822825C0023009301230F
:101300001B0602F021FA0FE00698408D0699088529
:10131000069805A909882822825C002300930123EE
:101320005B0602F011FAFFE7FFE79DE706980C99CC
:10133000029A02F025FB002804D0FFE707A801214C
:1013400001701EE0069800682021C16106980068BF
:1013500042680F4B1A404260069841228154069819
:10136000422100224254FFE70698402100224254C5
:10137000FFE707A80021017003E007A80221017020
:10138000FFE707A8007808B070BDC04600200080C5
:1013900000E800FE80B582B00190019800682749FE
:1013A000884210D1FFE79648016801225205914317
:1013B0000160244840210090FFF730F98021009817
:1013C000FFF72CF9FFE702B080BDC04680B588B0BA
:1013D00007900020069005900490039002900798D3
:1013E00000681649884227D1FFE7FFE714480168E3
:1013F000012292041143016000681040019001989D
:10140000FFE7C020029012200390002004900320E8
:101410000590012006900B4802A9FFF7B1F9FFE7FC
:10142000F448016801225205114301600068104030
:1014300000900098FFE7FFE708B080BD005400402F
:10144000141002400004004880B584B00290029855
:10145000002804D1FFE703A80121017044E00298AD
:1014600000682349016002980068224901600298DF
:101470004168006841600298816800688160FFF7F8
:1014800023FB0190FFE702980068C068400700282E
:1014900014D0FFE7FFF718FB0199401A28280CD356
:1014A000FFE702980068C0684007002804D0FFE703
:1014B00003A80321017017E0FFE7E4E70298006842
:1014C00000690299C968884205D0FFE70298C1689F
:1014D0000068016104E0029800680C490160FFE7C0
:1014E00003A800210170FFE703A8007804B080BDC5
:1014F000CCCC00005555000081B0009000980068E9
:1015000002490160002001B07047C046AAAA00004D
:101510002A48007802490A68101808607047C046D7
:10152000B002002080B582B0064801681022114345
:101530000160032000F008F8019000F045F8002059
:1015400002B080BD0020024080B586B004901A48E9
:1015500000681A4909787D22D20003901046FEF7F0
:10156000C1FD0399029008460299FEF7BBFD00F009
:1015700005FD002804D0FFE705A80121017017E050
:10158000049803280CD8FFE704990020C243019077
:101590001046019A00F04EF804980949086003E0EB
:1015A00005A80121017003E005A800210170FFE7F3
:1015B00005A8007806B080BD0400002008000020C7
:1015C0000C0000207047000082B0FFE70B48016864
:1015D0000122114301600068104001900198FFE76B
:1015E000FFE7844801680122120711430160006887
:1015F000104000900098FFE702B0704718100240BA
:101600001C10024080B582B0014601AA107010780B
:1016100040B2009103F0DAFD02B080BD80B582B027
:10162000014601AA1070107840B2009103F0E8FD65
:1016300002B080BD10B584B0034603AC20700291A7
:101640000192207840B20299009303F0EFFD04B0BC
:1016500010BD03F02FFE000067480168012212024E
:10166000114301607047C04680B586B004900020E9
:101670000390029004988078C007002800D193E07E
:1016800001A8002101705B480068C000002810D448
:10169000FFE7FFE757480168012212071143016085
:1016A0000068104000900098FFE701A80121017038
:1016B000FFE751480068C00500281DD4FFE74E48E9
:1016C00001680122120211430160FFF7FDF9039046
:1016D000FFE749480068C00500280CD4FFE7FFF782
:1016E000F3F90399401A652804D3FFE705A80321FD
:1016F00001707BE0EDE7FFE7404800680321090245
:10170000084002900298002838D0FFE70298049918
:10171000496803221202114088422FD0FFE7374860
:10172000016803221202914302910168012212040E
:10173000114301600168914301600299016002A8B0
:101740000078C007002818D0FFE7FFF7BDF9039025
:10175000FFE72A480068800700280DD4FFE7FFF75D
:10176000B3F90399401A9649884204D3FFE705A8C4
:10177000032101703AE0ECE7FFE7FFE71F4801684B
:10178000032212029143049A52681143016001A896
:101790000078012807D1FFE71648016801221207E7
:1017A00091430160FFE7FFE704980078C007002835
:1017B00009D0FFE71248016803229143049A926816
:1017C00011430160FFE7049800788006002809D5DE
:1017D000FFE70B48016810229143049AD268114335
:1017E0000160FFE705A800210170FFE705A8007868
:1017F00006B080BD1C100240007000402010024066
:101800003010024080B584B0029001910298002807
:1018100004D1FFE703A801210170C7E001986549E1
:10182000096801221140884212D9FFE76148016826
:1018300001229143019B1943016000681040019906
:10184000884204D0FFE703A801210170AEE0FFE762
:10185000029800788007002816D5FFE702980078E4
:101860004007002807D5FFE78748016807221202D2
:1018700011430160FFE784480168F0229143029A16
:10188000926811430160FFE702980078C0070028C2
:1018900050D0FFE70298406801280BD1FFE7464887
:1018A00000688003002804D4FFE703A80121017029
:1018B0007CE01BE00298406802280BD1FFE73E481D
:1018C00000688001002804D4FFE703A8012101700B
:1018D0006CE00AE0384800688007002804D4FFE77D
:1018E00003A80121017061E0FFE7FFE76648016896
:1018F00003229143029A526811430160FFF7E4F812
:101900000090FFE7604800680C2108400299496890
:10191000890088420DD0FFE7FFF7D6F80099401AFA
:101920002749884204D3FFE703A8032101703DE063
:10193000E8E7FFE701981F49096801221140884242
:1019400012D2FFE71B48016801229143019B194312
:101950000160006810400199884204D0FFE703A8A5
:101960000121017022E0FFE702980078400700287B
:101970000AD5FFE744480168072212029143029A00
:10198000D26811430160FFE700F032F83E49096870
:10199000C9B20909094A515CC8400C4908600320D2
:1019A000FFF7D2FD03A900220A70FFE703A8007821
:1019B00004B080BD0020024000100240A06A000870
:1019C00089130000014800687047C04604000020E9
:1019D00080B5FFF7F7FF2C49096807221202114072
:1019E000090A024A515CC84080BDC046B06A00087E
:1019F00080B588B000200790069005900490039071
:101A000021480068079007980C21084000280290A0
:101A100033D0FFE70298042804D0FFE70298082893
:101A200003D02BE01D4803902BE007980F218A0478
:101A30001040800C154A105C04901548006808405E
:101A40001449085C069007A88078C00700280CD0CD
:101A5000FFE7069A114800210191019BFEF758FB10
:101A6000049AFEF785FB059004E004980A49414377
:101A70000591FFE70598039003E0FFE7074803900F
:101A8000FFE7039808B080BD04100240B86A000860
:101A90002C100240C86A000800093D0000127A00BC
:101AA00080B586B0049003910292019304980028B7
:101AB00004D1FFE705A80121017056E00498C06F2A
:101AC000002808D1FFE704987821002242540498A6
:101AD00001F04AFAFFE704982421C16704980068DE
:101AE0000168012291430160049803F005F901287F
:101AF00004D1FFE705A80121017036E00498406A8F
:101B0000002804D0FFE7049802F08AFDFFE704985C
:101B1000006881680122930319438160049800687A
:101B20008068D10388430399084304990968886051
:101B3000029840050090019800040099014300912B
:101B40000498006800680B4908400099084304990C
:101B500009680860049800680168114301600498EE
:101B600002F00CFE05A90870FFE705A8007806B092
:101B700080BDC046FFFF00FC80B584B00390029199
:101B8000019200200090039800684068E3490840F3
:101B9000009068464188029AD17000991F22120273
:101BA0001140090A029A517000993F221140029A8D
:101BB00091700088400B029908700198002813D199
:101BC000FFE70298C07802F057FB0299C8700298AC
:101BD000407802F051FB029948700298807802F038
:101BE0004BFB02998870FFE7002004B080BDC0461F
:101BF00080B584B003900291019200200090039878
:101C00000068806A029948600398006800691E496C
:101C10000840029988600398006800681B490840E2
:101C2000009000983F2109040840000C02990870B8
:101C300000987F210A021040000A029A5070009812
:101C40000840029988700098012189050840800D9C
:101C50000299C8700198002813D1FFE70298007814
:101C600002F00AFB029908700298407802F004FB27
:101C7000029948700298807802F0FEFA0299887002
:101C8000FFE7002004B080BDFF7F00007F7F7F0062
:101C900080B584B0029001A801210170029800284B
:101CA00004D1FFE703A80121017076E00298407F8C
:101CB000002807D1FFE7029800210177029800F081
:101CC00085F8FFE702980221417702980068C06812
:101CD00010210840000900284ED1FFE7FFE70298D5
:101CE0000068CA2141620298006853214162FFE7FF
:101CF000029802F0F1FA01A908700878002821D1B1
:101D0000FFE7029800688168264A114081600298C6
:101D100041680269114342691143006882680A43BD
:101D200082600298C16800680161029881680904B4
:101D3000006802690A430261029802F011FB01A9DE
:101D40000870FFE701A8007800280ED1FFE702988D
:101D50000068016C01229204914301640298816938
:101D60000068026C0A430264FFE7FFE7029800681C
:101D7000FF214162FFE703E001A800210170FFE7B6
:101D800001A80078002804D1FFE7029801214177DB
:101D9000FFE7019803A90870FFE703A8007804B0E3
:101DA00080BDC046BFFF8FFF81B0009000980068E3
:101DB0000F49884207D1FFE70E4801680122D2038C
:101DC00091430160FFE701B07047C04681B00090C9
:101DD000009800680649884207D1FFE70548016876
:101DE0000122D20311430160FFE701B07047C046F2
:101DF000002800402010024080B588B00690059170
:101E0000049200200390FFE70698007F012804D188
:101E1000FFE707A8022101707CE006980121017705
:101E2000FFE7FFE7069802214177049800280DD1CB
:101E3000FFE705984078C006002807D5FFE705981A
:101E40004178EF2211400A314170FFE704980028E1
:101E50001CD1FFE70598C07802F021FA000405992B
:101E600049780190084602F01AFA00020199081810
:101E7000059989780090084602F011FA009908182F
:101E8000059909784903084303900CE00598C17847
:101E90000904427812028918827889180078400370
:101EA00001430391FFE7FFE706980068CA214162FA
:101EB0000698006853214162FFE7069802F00CFA89
:101EC00002A90870087800280CD1FFE7039813498D
:101ED0000840069909684860069802F041FA02A98C
:101EE0000870FFE702A80078002804D1FFE70698F1
:101EF00001214177FFE7FFE706980068FF21416273
:101F0000FFE7FFE7069800210177FFE7029807A99E
:101F10000870FFE707A8007808B080BD3FFFFF000A
:101F200080B584B0029000200190029800681149A9
:101F3000C160FEF7C9FD0190FFE702980068C06824
:101F4000800600280DD4FFE7FEF7BEFD0199401A78
:101F50000949884204D3FFE703A80321017004E084
:101F6000EBE703A800210170FFE703A8007804B0A5
:101F700080BDC04659790100E903000080B582B0F8
:101F80000190019802F0C2FA02B080BD82B00A4608
:101F900001906846018002B07047FFE7FEE7704796
:101FA00080B582B00190019800680949884203D148
:101FB000FFE703F0C9FB09E0019800680549884282
:101FC00003D1FFE703F090FBFFE7FFE702B080BD1E
:101FD000003801400044004081B0009001B07047DB
:101FE00080B5034803490160FEF70EFA80BDC04684
:101FF0002400002000300240FFE7FEE770477047F2
:102000000000000000000000131023410000000841
:1020100080B588B006900698002804D1FFE707A88D
:102020000121017036E306980078C007002800D12E
:1020300093E0FE4800680C21084004280DD0FFE71B
:10204000FA4800680C210840082816D1FFE7F74835
:102050000068C003002810D5FFE7F7480068800338
:10206000002809D5FFE706984068002804D1FFE75B
:1020700007A8012101700DE36EE0FFE706984068B4
:10208000012807D1FFE7EC4801680122120411433F
:1020900001602CE00698406800280BD1FFE7E64875
:1020A000016801221304994301600168920491437D
:1020B00001601BE00698406805280BD1FFE7DE4869
:1020C000016801229304194301600168120411435D
:1020D00001600AE0D84801680122130499430160B5
:1020E0000168920491430160FFE7FFE7FFE7FFE724
:1020F00006984068002817D0FFE7FEF7E5FC05903A
:10210000FFE7CD480068800300280CD4FFE7FEF706
:10211000DBFC0599401A652804D3FFE707A80321D3
:102120000170B7E2EDE716E0FEF7CEFC0590FFE7A1
:10213000C1480068800300280CD5FFE7FEF7C4FC07
:102140000599401A652804D3FFE707A80321017009
:10215000A0E2EDE7FFE7FFE7FFE7069800788007DA
:10216000002876D5FFE7B14800680007800F0028F7
:102170000DD0FFE7AD4800680C210840082820D1A9
:10218000FFE7AA480068C00300281AD4FFE7AA485E
:1021900000688007002809D5FFE70698C068012875
:1021A00004D0FFE707A80121017073E2A24801688B
:1021B000F8229143069A1269D20011430160FFE7A9
:1021C00046E00698C068002825D0FFE79A480168D5
:1021D000012211430160FEF777FC0590FFE7964866
:1021E0000068800700280CD4FFE7FEF76DFC059916
:1021F000401A032804D3FFE707A80321017049E22E
:10220000EDE78D480168F8229143069A1269D200E1
:10221000114301601BE0884801680122914301607D
:10222000FEF752FC0590FFE783480068800700280E
:102230000CD5FFE7FEF748FC0599401A032804D3A4
:10224000FFE707A80321017024E2EDE7FFE7FFE7BE
:10225000FFE706980078000700283ED5FFE70698BC
:10226000C06900281CD0FFE77448016801221143AF
:102270000160FEF729FC0590FFE7704800688007C1
:1022800000280CD4FFE7FEF71FFC0599401A03282D
:1022900004D3FFE707A803210170FBE1EDE71BE092
:1022A00066480168012291430160FEF70DFC05902C
:1022B000FFE7FC480068800700280CD5FFE7FEF721
:1022C00003FC0599401A032804D3FFE707A803215C
:1022D0000170DFE1EDE7FFE7FFE7069800784007D0
:1022E000002800D4BBE002A800210170EE4800687D
:1022F000C000002810D4FFE7FFE7EB480168012287
:102300001207114301600068104001900198FFE737
:1023100002A801210170FFE7E4480068C005002819
:102320001DD4FFE7E1480168012212021143016058
:10233000FEF7CAFB0590FFE7DC480068C0050028EF
:102340000CD4FFE7FEF7C0FB0599401A652804D3BB
:10235000FFE707A8032101709CE1EDE7FFE7FFE736
:1023600006988068012806D1FFE7D148016801225C
:102370001143016029E00698806800280AD1FFE730
:10238000CB48016801229143016001680422914316
:10239000016019E00698806805280AD1FFE7C44863
:1023A00001680422114301600168012211430160A8
:1023B00009E0BF48016801229143016001680422DD
:1023C00091430160FFE7FFE7FFE7FFE706988068BA
:1023D000002818D0FFE7FEF777FB0590FFE7B44829
:1023E0000068800700280DD4FFE7FEF76DFB059914
:1023F000401AB049884204D3FFE707A803210170BF
:1024000048E1ECE71EE0FEF75FFB0590FFE7A84818
:1024100000688007002814D5FFE7FEF755FB0599F3
:10242000401AA44988420BD302E0C046041002407F
:1024300007A8032101702DE1001002402410024082
:10244000E5E7FFE702A80078012807D1FFE79648F3
:1024500001680122120791430160FFE7FFE7069838
:102460000078C006002864D5FFE706984069012877
:1024700029D1FFE7904801680422114301600168F7
:10248000012211430160FEF71FFB0590FFE78A4818
:102490000068800700280CD4FFE7FEF715FB0599BC
:1024A000401A032804D3FFE707A803210170F1E0D5
:1024B000EDE781480168F8229143069A9269D200BB
:1024C0001143016034E006984069401D00280ED198
:1024D000FFE7794801680422914301600168F8220E
:1024E0009143069A9269D200114301601FE072483D
:1024F00001680422114301600168012291430160D7
:10250000FEF7E2FA0590FFE76B48006880070028B5
:102510000CD5FFE7FEF7D8FA0599401A032804D333
:10252000FFE707A803210170B4E0EDE7FFE7FFE74D
:10253000FFE70698006A002800D1A7E05748006826
:102540000C210840082871D0FFE70698006A02288D
:102550004ED1FFE752480168012212069143016003
:10256000FEF7B2FA0590FFE74D48006880010028A9
:102570000CD5FFE7FEF7A8FA0599401A032804D303
:10258000FFE707A80321017084E0EDE7FFE74B4870
:1025900001680F229143069AD26A114301603F48B5
:1025A00001683D2212049143069A936A526A1343CA
:1025B00019430160FFE73A480168012212061143FE
:1025C0000160FEF781FA0590FFE735480068800159
:1025D00000280CD4FFE7FEF777FA0599401A032884
:1025E00004D3FFE707A80321017053E0EDE71CE0E7
:1025F0002B4801680122120691430160FEF764FA3C
:102600000590FFE726480068800100280CD5FFE709
:10261000FEF75AFA0599401A032804D3FFE707A8E2
:102620000321017036E0EDE7FFE72EE00698006A2F
:10263000012804D1FFE707A8012101702AE017480B
:10264000006804901D480068039004980121090463
:1026500008400699496A884211D1FFE703980F2183
:1026600008400699C96A884209D1FFE704980F21FA
:10267000890408400699896A884204D0FFE707A8C0
:102680000121017006E0FFE7FFE7FFE707A800214F
:102690000170FFE707A8007808B080BD0410024071
:1026A00000100240241002401C1002400070004044
:1026B0002010024089130000341002402C10024008
:1026C00080B588B006900591049200200390FFE742
:1026D0000698007F012804D1FFE707A802210170B6
:1026E00093E0069801210177FFE7FFE706980221B2
:1026F00041770498002828D1FFE706980068806891
:102700004006002801D5FFE703E005980021C170CD
:10271000FFE70598007801F0C2FD000405994978AB
:102720000190084601F0BBFD0002019908180599C7
:1027300089780090084601F0B2FD009908180599C3
:10274000C97889050843039018E0069800688068F6
:102750004006002801D5FFE703E005980021C1707D
:10276000FFE70598017809044278120289188278F7
:102770008918C078800501430391FFE7FFE70698B9
:102780000068CA2141620698006853214162FFE750
:10279000069801F0A1FD02A90870087800281CD154
:1027A000FFE703981B4908400699096808600698E6
:1027B0000068816801229204914381600598C16894
:1027C000006901430698006882680A43826006989F
:1027D00001F0C6FD02A90870FFE702A800780028F2
:1027E00004D1FFE7069801214177FFE7FFE706984C
:1027F0000068FF214162FFE7FFE7069800210177AB
:10280000FFE7029807A90870FFE707A8007808B05B
:1028100080BDC0467F7F7F0080B592B00490FFE707
:10282000EFF3108006900698039001200790079818
:1028300080F31088049800680168092252019143CE
:10284000016003980890089880F31088FFE7FFE77D
:10285000EFF3108009900998029001200A900A99DC
:1028600081F31088049909688A6882438A60029813
:102870000B900B9880F31088FFE70498006E0128F6
:1028800018D1FFE7FFE7EFF310800C900C98019050
:1028900001200D900D9880F310880498006801685D
:1028A00010229143016001980E900E9880F31088D9
:1028B000FFE7FFE70498006880684006002839D5E4
:1028C000FFE7FFE7EFF310800F900F9800900120D3
:1028D0001090109880F31088049800688168402256
:1028E0009143816000981190119880F31088FFE760
:1028F0000498406F00281CD0FFE70498406F002127
:1029000041630498406FFDF7F3FD002810D0FFE706
:102910000498406FFDF761FE202808D1FFE7049876
:1029200084211022425005A80321017019E0FFE71D
:10293000FFE7FFE704985A210022425204980068FA
:102940000F2101620498006881690823194381619D
:1029500004988021202343500498026605A8027041
:10296000FFE705A8007812B080BD000080B5A8B0D0
:102970000F900F980068C0690E900F98006800686B
:102980000D900F98006880680C900E98EE490840F2
:102990000B900B98002817D1FFE70EA8007880064F
:1029A000002810D5FFE70DA80078800600280AD57A
:1029B000FFE70F98806E002804D0FFE70F98816E24
:1029C0008847FFE742E2FFE70B98002800D1FBE0D1
:1029D0000CA80078C007002805D1FFE70D98DB4957
:1029E000084200D1F0E00EA80078C007002810D0FF
:1029F000FFE70DA84078C00700280AD0FFE70F982E
:102A00000068012101620F98842283580B43835090
:102A1000FFE70EA800788007002811D5FFE70CA873
:102A20000078C00700280BD0FFE70F98006802214C
:102A300001620F988421425804231A434250FFE751
:102A40000EA800784007002811D5FFE70CA80078F1
:102A5000C00700280BD0FFE70F980068042101622F
:102A60000F988421425802231A434250FFE70EA8D0
:102A700000780007002816D5FFE70DA8007880062B
:102A8000002806D4FFE70CA80078C00700280AD069
:102A9000FFE70F980068082101620F98842283588D
:102AA0000B438350FFE70EA840780007002812D59B
:102AB000FFE70DA8C078400700280CD5FFE70F9866
:102AC00000680121C90201620F9884214258202325
:102AD0001A434250FFE70F9884214058002872D0D3
:102AE000FFE70EA800788006002810D5FFE70DA8A4
:102AF0000078800600280AD5FFE70F98806E00282E
:102B000004D0FFE70F98816E8847FFE7FFE70F9833
:102B1000842140580A900F9800688068402108403E
:102B2000402806D0FFE70AA800782821084241D0B3
:102B3000FFE70F9801F0E2FE0F98006880684006FA
:102B4000002832D5FFE7FFE7EFF3108010901098D0
:102B5000099001201190119880F310880F98006857
:102B6000816840229143816009981290129880F305
:102B70001088FFE70F98406F002811D0FFE70F98EB
:102B8000406FB34941630F98406FFDF7EAFC00289E
:102B900005D0FFE70F98406F416B8847FFE703E0E0
:102BA0000F98FFF7FDF9FFE703E00F98FFF7F8F93B
:102BB000FFE707E00F98FFF7F3F90F988421002251
:102BC0004250FFE7FFE741E10F98006E012800D077
:102BD00016E10EA80078C006002800D410E10DA868
:102BE0000078C006002800D40AE10F980068102180
:102BF00001620F98006880684006002800D490E0C9
:102C00000F98406F0068406808A90880088800286D
:102C100000D185E008A800880F995822895A884277
:102C200000DB7DE008980F995A2288520F98406F78
:102C30008069202867D0FFE7FFE7EFF3108013904B
:102C40001398079001201490149981F310880F991C
:102C500009680A68000282430A600798159015986F
:102C600080F31088FFE7FFE7EFF3108016901698C7
:102C7000069001201790179981F310880F99096821
:102C80008A6882438A6006981890189880F31088A2
:102C9000FFE7FFE7EFF310801990199805900120E6
:102CA0001A901A9880F310880F9800688168402263
:102CB0009143816005981B901B9880F31088FFE773
:102CC0000F988021202242500F9800210166FFE7D3
:102CD000EFF310801C901C98049001201D901D980B
:102CE00080F310880F9800680168102291430160FA
:102CF00004981E901E9880F31088FFE70F98406F8D
:102D0000FDF7F6FBFFE70F98022141660F98582167
:102D1000415A5A22825A891A89B2FFF737F9FFE7D6
:102D200094E00F985821415A5A22805A081A03A950
:102D300008800F98805A002861D0FFE703A8008818
:102D400000285CD004E0C0460F0800002001000409
:102D5000FFE7EFF310801F901F9802900120209052
:102D6000209880F310880F980068016809225201AA
:102D70009143016002982190219880F31088FFE729
:102D8000FFE7EFF31080229022980190012023901A
:102D9000239981F310880F9909688A6882438A60B1
:102DA00001982490249880F31088FFE70F988021E1
:102DB000202242500F98002101660F988166FFE79C
:102DC000EFF31080259025980090012026902698FA
:102DD00080F310880F980068016810229143016009
:102DE00000982790279880F31088FFE70F9802211A
:102DF00041660F9803A90988FFF7C8F8FFE725E0A7
:102E00000EA800780006002810D5FFE70DA800786E
:102E1000000600280AD5FFE70F98C06E002804D0EE
:102E2000FFE70F98C16E8847FFE70FE00EA8007814
:102E3000400600280AD5FFE70DA8007840060028C4
:102E400004D5FFE70F9801F0B1FDFFE728B080BD82
:102E5000D948000880B582B000900098002804D1BD
:102E6000FFE701A80121017047E000988069002870
:102E700001D0FFE700E0FFE70098C06F002808D10D
:102E8000FFE70098782100224254009800F06CF887
:102E9000FFE700982421C1670098006801680122BB
:102EA00091430160009801F027FF012804D1FFE75A
:102EB00001A80121017020E00098406A002804D098
:102EC000FFE7009801F0ACFBFFE70098006841685D
:102ED0000122D30299434160009800688168082369
:102EE000994381600098006801681143016000986F
:102EF00001F044FC01A90870FFE701A8007802B0C6
:102F000080BD000080B582B00190019800685749EB
:102F1000884210D1FFE7594801680122920391438A
:102F200001600920C0060B214902FDF777FB1B2039
:102F3000FEF768FB15E0019800684D4988420FD103
:102F4000FFE74C48016801225204914301600920C7
:102F5000C0060C21FDF762FB1C20FEF753FBFFE7C8
:102F6000FFE702B080BDC04680B58EB00D90002056
:102F70000C900B900A90099008900D9800683B49BE
:102F8000884235D1FFE7FFE73C4801680122920300
:102F9000114301600068104007900798FFE7FFE7C2
:102FA0003548016801225204114301600068104055
:102FB00006900698FFE70B20400208900220099037
:102FC00000200A9003210B9101210C910921C906CF
:102FD00008AA039008461146FDF7D2FB1B20029079
:102FE0000399039AFEF726FB0298FEF717FB3AE0D7
:102FF0000D980068E549884234D1FFE7FFE71D4896
:1030000001680122520411430160006810400590DC
:103010000598FFE7FFE718480168012252041143B1
:1030200001600068104004900498FFE70C200890AD
:103030000220099000200A9003210B9101210C919C
:103040000921C90608AA019008461146FDF798FB18
:103050001C2000900199019AFEF7ECFA0098FEF707
:10306000DDFAFFE7FFE70EB080BDC0460038014043
:10307000004400401C10024014100240181002408E
:1030800010B58AB014460890079106A802800593EF
:10309000089880214058202800D0C9E007980028CF
:1030A00005D0FFE706A80088002804D1FFE709A89B
:1030B00001210170C0E0089880680121090388425D
:1030C00010D1FFE70898006900280BD1FFE707A897
:1030D0000078C007002804D0FFE709A8012101708B
:1030E000AAE0FFE708988421002242500898802136
:1030F0002223435008980266FDF7E6FC01900698EB
:10310000089958228852069808995A228852FFE74F
:103110000898806801210903884210D1FFE70898C8
:103120000069002805D1FFE708985C21F84A42525F
:1031300004E008985C21FF224252FFE71AE0089859
:103140008068002810D1FFE708980069002805D1A1
:10315000FFE708985C21FF22425204E008985C21B6
:103160007F224252FFE704E008985C21002242528D
:10317000FFE7FFE7FFE708985C21405A02A90880B3
:10318000089880680121090388420AD1FFE708985E
:103190000069002805D1FFE70020049007980390FC
:1031A00004E00798049000200390FFE7FFE70898E9
:1031B0005A21405A002833D0FFE70898019B05990F
:1031C00000912021002201F073FF002808D0FFE7C2
:1031D000089880212022425009A8032101702BE089
:1031E000049800280BD1FFE708980068808C0299AA
:1031F0000840039908800398801C03900AE008980F
:103200000068808C02990840049908700498401C5A
:103210000490FFE708985A21425A521E4252C6E7CC
:10322000089880212022425009A80021017003E063
:1032300009A802210170FFE709A800780AB010BDB3
:1032400080B588B013460390029101A802800398CC
:103250008021405820284FD1FFE70298002805D050
:10326000FFE701A80088002804D1FFE704A8012196
:10327000017045E00398806801210903884210D15C
:10328000FFE70398006900280BD1FFE702A8007848
:10329000C007002804D0FFE704A8012101702FE037
:1032A000FFE7039800210166039800684068000268
:1032B000002818D5FFE7FFE7EFF310800590059889
:1032C000009001200690069981F3108803990968FF
:1032D0000A68800602430A6000980790079880F306
:1032E0001088FFE7FFE70398029901AA128801F00E
:1032F00025FE04A9087003E004A802210170FFE77D
:1033000004A8007808B080BD80B582B00190019813
:1033100000681D49884219D1FFE7FDF7D5FB1F4919
:1033200008601F480178491CCAB20170412A04D3C1
:10333000FFE71B4800210170FFE719480078194991
:10334000091819480122FFF77BFF1BE0019800686C
:103350000E49884215D1FFE70D480178491CCAB2D1
:103360000170112A04D3FFE7094800210170FFE72B
:10337000074800780749091807480122FFF760FF4E
:10338000FFE7FFE702B080BD003801400044004085
:103390001C0200200C0200204C0100208C020020A6
:1033A0008A0200204A020020C400002010B58AB022
:1033B00014460890079106A8028005930898C06FEC
:1033C000202800D09BE00798002805D0FFE706A83A
:1033D0000088002804D1FFE709A80121017092E0CC
:1033E0000898806801210903884210D1FFE70898F6
:1033F000006900280BD1FFE707A80078C007002864
:1034000004D0FFE709A8012101707CE0FFE70898DC
:1034100084210022425008982121C167FDF754FB06
:1034200002900698089950228852069808995222CC
:103430008852089880680121090388420AD1FFE771
:1034400008980069002805D1FFE70020049007983C
:10345000039004E00798049000200390FFE7FFE743
:1034600008985221405A002830D0FFE70898029B64
:10347000059900918021002201F01AFE002807D052
:10348000FFE708982021C16709A8032101703AE0ED
:10349000049800280BD1FFE7039800881C490840D6
:1034A0000899096808850398801C039008E004982F
:1034B00000780899096808850498401C0490FFE783
:1034C00008985221425A521E4252C9E70898029B5C
:1034D000059900914021002201F0EAFD002807D063
:1034E000FFE708982021C16709A8032101700AE0BD
:1034F00008982021C16709A80021017003E009A8EC
:1035000002210170FFE709A800780AB010BDC0468B
:10351000FF01000081B000900098006880690221DE
:1035200008404008002805D0FFE700980068002107
:103530008162FFE7009800688069C007002807D112
:10354000FFE7009800688169012211438161FFE76C
:1035500001B0704780B58AB009900891079206A81B
:10356000002101700998006880690590049107980E
:10357000039005A80078C006002800D484E00998CC
:1035800000681021C161FFE7099800688069202167
:103590000840400900210028009106D1FFE706A855
:1035A0000078414248410090FFE70098C00700289A
:1035B00058D0FFE70898401C002852D0FFE7FDF7DD
:1035C00083FA0399401A0899884204D8FFE70898BB
:1035D000002845D1FFE70998006840680121890368
:1035E0000840029009984221405C01A9087009989E
:1035F0000068806980B2C00B002816D0FFE70298EF
:1036000001218903884210D0FFE701A80078202813
:103610000BD0FFE70998006841680122920311432B
:103620004160FDF751FA0390FFE7FFE70998006852
:103630008069202108404009002810D1FFE7FDF7EC
:1036400043FA0399401A1A2808D3FFE70498202167
:103650000843049006A80121017000E0E6E7FFE7B7
:10366000FFE791E706A80078002805D1FFE7099851
:1036700000682021C161FFE70498042108430490F9
:1036800006A801210170FFE709980068806905908C
:1036900005A84078C00700280BD0FFE70498012157
:1036A00008430490099800680A02C26106A80170E4
:1036B000FFE705A84078400700280CD5FFE70498ED
:1036C0000821084304900998006801218A02C26118
:1036D00006A80170FFE705A84078800700280CD5F0
:1036E000FFE704980221084304900998006801212B
:1036F0004A02C26106A80170FFE706A80078002808
:103700001DD0FFE70998FFF705FF09980068416899
:103710009A4A11404160049809994A6C02434A64EC
:103720000998412120224254099842210022425402
:10373000FFE70998402100224254FFE7FFE706A86F
:1037400000780AB080BDC04670B585B0099C1546AA
:103750000E46049003A8018002A90A700193008814
:103760000D4A104009780904401801990843099945
:1037700008430121C9078843009004980068406805
:103780000999490D8843054908400099084304995F
:103790000968486005B070BDFF030000009C00FC94
:1037A000B0B586B00A9C15460490039102A8027039
:1037B0000193FFE704980068806903990840401A64
:1037C0004142484102A90978884237D1FFE7019870
:1037D000401C002831D0FFE7FDF776F90A99401A1E
:1037E0000199884204D8FFE70198002824D1FFE717
:1037F00004980068806903990840401A4142484192
:1038000002A90978884216D1FFE70498416C20226A
:1038100011434164049841214254049842210022FA
:103820004254FFE70498402100224254FFE705A8D4
:103830000121017006E0FFE7FFE7BBE705A80021D3
:103840000170FFE705A8007806B0B0BD80B584B070
:10385000029001910092FFE70298006880690421BC
:1038600008408008002800D07FE002980199009A63
:10387000FFF770FE002804D0FFE703A801210170C4
:1038800077E00298006880692021084040090128FB
:1038900042D1FFE70298006880690421084080084F
:1038A000012809D1FFE70298008D002804D0FFE726
:1038B00003A8002101705CE0029800688069102173
:1038C00008400009012808D1FFE70298006810218C
:1038D000C16102980421416403E00298002141641F
:1038E000FFE7029800682021C161029800684268E1
:1038F000224B1A4042600298412281540298422190
:1039000000224254FFE70298402100224254FFE780
:1039100003A8012101702CE0FDF7D6F80099401AA8
:103920000199884204D8FFE7019800281CD1FFE7DD
:10393000029800688069042108408008002812D19C
:10394000FFE70298416C2022114341640298412113
:103950004254FFE70298402100224254FFE703A8A7
:103960000121017005E0FFE776E703A8002101705F
:10397000FFE703A8007804B080BDC04600E800FE61
:1039800080B584B0029001910092FFE70298006830
:103990008069202108404009002839D1FFE70298BA
:1039A0000199009AFFF7D6FD002804D0FFE703A88D
:1039B0000121017030E0FDF787F80099401A019964
:1039C000884204D8FFE70198002820D1FFE7029839
:1039D00000688069202108404009002816D1FFE7CF
:1039E0000298416C202211434164029841214254C3
:1039F0000298422100224254FFE70298402100220F
:103A00004254FFE703A80121017005E0FFE7BDE78D
:103A100003A800210170FFE703A8007804B080BD6F
:103A200080B584B0029001910092FFE7029800688F
:103A3000806902210840400800283FD1FFE7029832
:103A40000199009AFFF786FD002804D0FFE703A83C
:103A50000121017036E00198401C00282DD0FFE7BD
:103A6000FDF732F80099401A0199884204D8FFE71F
:103A70000198002820D1FFE70298006880690221A0
:103A800008404008002816D1FFE70298416C202228
:103A9000114341640298412142540298422100227C
:103AA0004254FFE70298402100224254FFE703A856
:103AB0000121017006E0FFE7FFE7B7E703A8002157
:103AC0000170FFE703A8007804B080BD80B58CB01A
:103AD000D1480068002804D1FFE70BA8032101703A
:103AE0006CE0BB480068002804D1FFE70BA8022166
:103AF000017063E006A8002112220590049102F0F3
:103B000035F8B44801681039090A059A117000683F
:103B1000103850702B482021049AFCF7BCFFAE48A7
:103B20007D21C900A02203911146039A039BFDF752
:103B3000F3F8002803D0FFE7FCF740FCFFE77D2007
:103B4000C0000090A448A02106AA1223FDF71CFB88
:103B5000002803D0FFE7FCF731FCFFE79E487D21FA
:103B6000C900A02202911146029A029BFDF7D4F8E7
:103B7000002803D0FFE7FCF721FCFFE711482021D4
:103B80000122FCF788FF93480168103901609048D2
:103B90000168491E01600068002806D1FFE79F48C0
:103BA0000178FE2211400170FFE79C480178FD2258
:103BB000114001700BA800210170FFE70BA80078ED
:103BC0000CB080BD0004004880B588B0F148017891
:103BD000FD22114001700178FE22114001708E48D3
:103BE00000210160EA480160E64801220260E648DF
:103BF0000523039102921A4601F0B8FF04A8102190
:103C0000017003994170DD48029A13030360DF4895
:103C10007D23DB00A0211A46FDF77EF8002803D0A3
:103C2000FFE7FCF7CBFBFFE77D20C0000090D74803
:103C3000A02104AA0223FDF7A7FA002803D0FFE77A
:103C4000FCF7BCFBFFE77D20C0000090CF48A0211F
:103C500004AA1023FDF794F9002803D0FFE7FCF72E
:103C6000ADFBFFE7FFE7C54800683049884244D80C
:103C7000FFE704A80078002806D1FFE704A84078F1
:103C8000002801D1FFE738E004A801780902427852
:103C90008918BC4A11601168491C1160BC490A6846
:103CA000521C0A60B5490A6810320A600A68120A92
:103CB0000270096841707D21C9000091B349A022BA
:103CC0000223019008461146019AFDF75DFA00288B
:103CD00003D0FFE7FCF772FBFFE77D20C0000090F8
:103CE000AA48A02104AA1023FDF74AF9002803D00E
:103CF000FFE7FCF763FBFFE7B5E7A548006800288E
:103D000006D0FFE7A3480178012211430170FFE7C5
:103D10009A4800689A49884206D3FFE79D4801788F
:103D2000022211430170FFE708B080BDEF3F0000A1
:103D300080B586B00490FCF7C7FE37490860944808
:103D40000068002804D1FFE705A8022101703AE0CD
:103D50008A4801681039090A03AA117000681038EE
:103D600050708A487D21C900A02202911146029A12
:103D7000029BFCF7D1FF002803D0FFE7FCF71EFBF6
:103D8000FFE77D20C0000090ED48A02103AA022398
:103D9000FDF7FAF9002803D0FFE7FCF70FFBFFE778
:103DA000049A7D20C0000090E548A0211023FDF773
:103DB000E7F8002803D0FFE7FCF700FBFFE705A8C2
:103DC00000210170FFE705A8007806B080BDC0465D
:103DD000F8010020FC0100204000002080B50E48C2
:103DE0000068002817D0FFE76A480178EF221140E9
:103DF0000170FCF769FE08490968401A642809D374
:103E0000FFE7644801781022114301700248002145
:103E10000160FFE7FFE780BD04020020AD02002043
:103E200080B58EB0DF485349012207900692FDF716
:103E3000DFFE5149079A05901046069AFDF79CFE51
:103E40004E4909684E4A914209D3FFE7514801782B
:103E50000222114301700DA80121017086E047483C
:103E60000168090A08AA1170006850704548016885
:103E7000090A91700068D070434801781171417847
:103E8000517181789171C178D171017911723A497A
:103E90008B7853724B789372C978D17235490B780D
:103EA00013734B7853738978917300210522049121
:103EB00001F05CFE87482021049AFCF7ECFDA04845
:103EC0007D21C900A02203911146039A039BFCF7B0
:103ED00023FF002803D0FFE7FCF770FAFFE77D20FF
:103EE000C00000909648A02108AA1223FDF74CF9C3
:103EF000002803D0FFE7FCF761FAFFE790487D2137
:103F0000C900A02202911146029A029BFCF704FF0D
:103F1000002803D0FFE7FCF751FAFFE76D482021A6
:103F20000122FCF7B8FD15480168103101601849FD
:103F30000A68521C0A6013490A68521C0A60006829
:103F40000F49884209D3FFE7124801780222114342
:103F500001700DA80121017008E00E4801780122CE
:103F6000114301700DA800210170FFE70DA8007832
:103F70000EB080BD9002002008020020FC0100204D
:103F8000F03F000000020020F0010020400000206F
:103F9000F8010020AD02002080B590B000200F9005
:103FA0000E900D900C900B90FFE74948016801229C
:103FB000D20411430160006810400A900A98FFE79C
:103FC000FFE7434801680122920511430160006840
:103FD000104009900998FFE7FFE73D48016801227A
:103FE0005204114301600068104008900898FFE7F0
:103FF000FFE737480168012292041143016000681D
:10400000104007900798FFE732481F2100220690D2
:1040100005910492FCF73FFD20200121069A0390B0
:104020001046039B02911946029AFCF734FD029850
:1040300041030B9103210C91049A0D9226480BAB7E
:10404000019119460093FCF79BFBC3200B9001984C
:104050000C9004990D9121480099FCF791FB2048A0
:104060000B9001980C9004990D910922D0060099AB
:10407000FCF786FB05980B9002990C91049A0D921F
:104080000E9206980099FCF77BFB3F2080020B9074
:1040900004980C9002990D9106980099FCF770FB1A
:1040A00003980B9002990C91049A0D92019B0E9328
:1040B00006980099FCF764FB019801020B910C90A3
:1040C00004990D9106980099FCF75AFB10B080BD39
:1040D0001410024000040048000800480014004882
:1040E000F389000080B5164816490160FF210C31A4
:1040F0004160002181600122C260016141618161F2
:10410000C1610162FCF782FD002803D0FFE7FCF7E4
:1041100055F9FFE70A480021FCF7DCFC002803D032
:10412000FFE7FCF74BF9FFE705480021FCF71DFD11
:10413000002803D0FFE7FCF741F9FFE780BDC04648
:10414000400000200054004080B508480849016044
:10415000042141600749C1608160FDF775F90028BD
:1041600003D0FFE7FCF72AF9FFE780BD94000020A9
:1041700000300040FF0F000080B50A480A49016086
:10418000002141607F228260FF22C26001614161A3
:104190008161FDF77DFD002803D0FFE7FCF70EF9F4
:1041A000FFE780BDA40000200028004080B582B059
:1041B000144815490160E1214902416000218160F4
:1041C000C16001610C2242618161C1610162416291
:1041D0000191019A019BFDF763FC002803D0FFE7E2
:1041E000FCF7ECF8FFE7094800210170084840227D
:1041F000009001F0BBFC034801220099FFF720F872
:1042000002B080BDC4000020003801408A020020B6
:104210004A02002080B582B01348144901604B2146
:10422000C901416000218160C160016104224261D5
:104230008161C16101624162FEF70CFE002803D07A
:10424000FFE7FCF7BBF8FFE70948002101700948C8
:104250001022019001F08AFC034801220199FEF727
:10426000EFFF02B080BDC0464C010020004400407A
:104270001C0200200C02002082B0014601AA10702E
:1042800000200090107800090A234343009300980F
:1042900012780F231A408018C0B202B0704782B063
:1042A000014601AA107000200090FFE701A80078E5
:1042B0000A2808D3FFE70098401C009001980A38AC
:1042C00001A90870F2E700980007000E01A909781B
:1042D000084302B07047000080B584B0039000200E
:1042E000029001A9087003980068C0684006002881
:1042F00030D4FFE703980068C16880221143C16091
:10430000FCF7E2FB0290FFE703980068C068002119
:1043100040060028009107D4FFE701A80078401E5E
:10432000411E88410090FFE70098C007002810D088
:10433000FFE7FCF7C9FB0299401A0849884207D3F6
:10434000FFE703980421417701A801210170FFE7ED
:10435000DAE7FFE701A8007804B080BDE9030000B8
:1043600080B582B001906846002101700198006814
:10437000C16880229143C16001980068806880060E
:1043800000280ED4FFE70198FDF7CAFD002807D0EA
:10439000FFE7019804214177684601210170FFE79A
:1043A000FFE76846007802B080BD88B013460790EA
:1043B000069105A802800020049007980078302814
:1043C0000ED1FFE707984078782805D0FFE70798D7
:1043D0004078582804D1FFE70798801C0790FFE732
:1043E000FFE705A80088002800D18CE00798007836
:1043F000412805DBFFE707980078472815DBFFE732
:1044000007980078612805DBFFE7079800786728A0
:104410000BDBFFE707980078302805DBFFE70798FC
:1044200000783A2801DBFFE76DE0049800282DD1E1
:10443000FFE70798007830280ADBFFE70798007845
:10444000392805DCFFE7079800783038039016E03C
:104450000798007841280ADBFFE70798007846288C
:1044600005DCFFE7079800783738029004E00798EA
:10447000007857380290FFE702980390FFE703980F
:10448000069908700498401C049034E000200490C1
:1044900006980178090101700798007830280ADB36
:1044A000FFE707980078392805DCFFE707980078D0
:1044B0003038019016E00798007841280ADBFFE7C2
:1044C00007980078462805DCFFE70798007837381A
:1044D000009004E00798007857380090FFE70098B4
:1044E0000190FFE7019806990A781018087006985D
:1044F000401C0690FFE70798401C07900598401E57
:1045000005A908806DE708B07047000080B584B049
:1045100002900298401E000E002803D0FFE7012001
:10452000039013E00298401E0A4908600020C1432E
:10453000032201900846114600F078FE06480199D2
:1045400001600648072202600391FFE7039804B068
:1045500080BDC04614E000E018E000E010E000E09C
:1045600080B5FCF7D5FF01F0E7FE80BD80B596B0C1
:104570000AA830210190FBF750FE00200990089016
:104580000790069005900490039002900090FDF72C
:1045900063F8214801681822114301600E200A9037
:1045A00001200C900D9010210E911190022012907C
:1045B000009813900521C904149115900198FDF7F6
:1045C00027FD002803D0FFE7FBF7F8FEFFE70720F1
:1045D00006900220079000200890099006A801216B
:1045E000FDF710F9002803D0FFE7FBF7E7FEFFE730
:1045F0000A480290002004900590012000020390D8
:1046000002A8FDF731F8002803D0FFE7FBF7D6FE3C
:10461000FFE716B080BDC046201002402100010017
:1046200081B0009000982421405CC00700280CD085
:10463000FFE7009800684068012149048843009919
:104640008A6A104309684860FFE700982421405CAB
:10465000800700280CD5FFE700980068406801211A
:10466000090488430099CA6A104309684860FFE753
:1046700000982421405C400700280CD5FFE70098F3
:104680000068406801218904884300990A6B10433F
:1046900009684860FFE700982421405C0007002873
:1046A0000CD5FFE70098006840680121C9038843E2
:1046B00000994A6B104309684860FFE7009824217D
:1046C000405CC00600280CD5FFE7009800688068B1
:1046D00001210903884300998A6B104309688860A7
:1046E000FFE700982421405C800600280CD5FFE7F6
:1046F0000098006880680121490388430099CA6BCB
:10470000104309688860FFE700982421405C400658
:1047100000281DD5FFE700980068406801210905C1
:104720008843009A136C1843126850600098006C1C
:1047300088420CD1FFE700980068406803214905D2
:10474000884300994A6C104309684860FFE7FFE717
:1047500000982421405C000600280CD5FFE7009853
:10476000006840680121C904884300998A6C10439D
:1047700009684860FFE701B07047000080B590B05D
:1047800005900598842100224250FCF79DF9049081
:104790000598006800680007002831D5FFE70598F4
:1047A000049B4C49009101214905002200F080FC46
:1047B000002824D0FFE7FFE7EFF310800790079869
:1047C000039001200890089880F3108805980068ED
:1047D000016880229143016003980990099880F351
:1047E0001088FFE705982021C167FFE70598782129
:1047F00000224254FFE706A80321017065E0FFE7AD
:104800000598006800684007002849D5FFE705982B
:10481000049B3049009101218905002200F048FCE9
:1048200000283CD0FFE7FFE7EFF310800A900A98DA
:10483000029001200B900B9880F310880598006877
:104840000168092252019143016002980C900C9872
:1048500080F31088FFE7FFE7EFF310800D900D98CD
:10486000019001200E900E9981F310880599096836
:104870008A6882438A6001980F900F9880F31088AD
:10488000FFE70598802120224250FFE70598782114
:1048900000224254FFE706A80321017015E0FFE75C
:1048A00005982021C1670598802281500598002134
:1048B000016605984166FFE7059878210022425479
:1048C000FFE706A800210170FFE706A8007810B0F6
:1048D00080BDC046FFFFFF0180B582B00190019806
:1048E000406A009000985A210022425200985221BA
:1048F00042520098FDF754FB02B080BD8DB003908A
:10490000FFE7EFF3108004900498029001200590D7
:10491000059880F310880398006801680922520105
:104920009143016002980690069880F31088FFE793
:10493000FFE7EFF31080079007980190012008909F
:10494000089981F31088039909688A6882438A600C
:1049500001980990099880F31088FFE70398006E8A
:10496000012818D1FFE7FFE7EFF310800A900A98BB
:10497000009001200B900B9880F31088039800683A
:10498000016810229143016000980C900C9880F30C
:104990001088FFE7FFE70398802120224250039808
:1049A00000210166039881660DB0704780B586B01E
:1049B0000290FFE7EFF3108003900398019001202D
:1049C0000490049880F310880298006801684022DF
:1049D0009143016001980590059880F31088FFE7E6
:1049E00002982021C16702980021C1660298FDF754
:1049F000F3FA06B080BD80B594B0079007985C21AB
:104A0000405A05A90880079880214058222800D0E4
:104A1000A9E007980068808C04A908800798406D79
:104A20000690049805990840069908800798416DFA
:104A3000891C416507985A21425A521E42520798D2
:104A4000405A002800D08DE0FFE7EFF31080089077
:104A50000898039001200990099880F3108807981E
:104A600000680168092252019143016003980A908D
:104A70000A9880F31088FFE7FFE7EFF310800B90B0
:104A80000B98029001200C900C9981F310880799E3
:104A900009688A6882438A6002980D900D9880F3B5
:104AA0001088FFE7079880212022425007980021B4
:104AB00081660798416607980068406800020028F0
:104AC00018D5FFE7FFE7EFF310800E900E980190E6
:104AD00001200F900F9981F31088079909680A68DF
:104AE000800682430A6001981090109880F3108825
:104AF000FFE7FFE70798006E01282ED1FFE7079830
:104B000000210166FFE7EFF31080119011980090EB
:104B100001201290129880F31088079800680168AD
:104B200010229143016000981390139880F310882D
:104B3000FFE707980068C0691021084000090128B4
:104B400005D1FFE70798006810210162FFE7079889
:104B50005821415AFDF71AFA03E00798FEF7D4FBF3
:104B6000FFE7FFE706E00798006881690822114324
:104B70008161FFE714B080BD80B594B007900798BD
:104B80005C21405A06A908800798802140582228B5
:104B900000D0A7E007980068808C05A908800598D8
:104BA000069908400799496D08700798416D491C9E
:104BB000416507985A21425A521E42520798405A5C
:104BC000002800D08DE0FFE7EFF3108008900898F0
:104BD000049001200990099880F3108807980068D4
:104BE0000168092252019143016004980A900A98D1
:104BF00080F31088FFE7FFE7EFF310800B900B982E
:104C0000039001200C900C9981F310880799096892
:104C10008A6882438A6003980D900D9880F310880B
:104C2000FFE70798802120224250079800218166E3
:104C3000079841660798006840680002002818D568
:104C4000FFE7FFE7EFF310800E900E98029001202F
:104C50000F900F9981F31088079909680A688006F8
:104C600082430A6002981090109880F31088FFE742
:104C7000FFE70798006E01282ED1FFE70798002173
:104C80000166FFE7EFF31080119011980190012069
:104C90001290129880F3108807980068016810221B
:104CA0009143016001981390139880F31088FFE7F7
:104CB00007980068C069102108400009012805D143
:104CC000FFE70798006810210162FFE70798582165
:104CD000415AFDF75BF903E00798FEF715FBFFE784
:104CE000FFE706E0079800688169082211438161A7
:104CF000FFE714B080BD000080B58AB0099004A819
:104D000000210170099881680269114342691143C9
:104D1000C069014308910998006800688249084009
:104D2000089908430999096808600998006840686B
:104D30000321090388430999CA6810430968486038
:104D40000998806908900998006A089901430891B8
:104D50000998006880680B21090288430899084374
:104D6000099909688860FFE7099800686F498842D7
:104D700023D1FFE76F480068032108400328029011
:104D800016D80298784400794000874401090D053F
:104D900006A8002101700FE006A8022101700BE0B7
:104DA00006A80421017007E006A80821017003E0AD
:104DB00006A810210170FFE70EE0099800685C4921
:104DC000884204D1FFE706A80021017003E006A88D
:104DD00010210170FFE7FFE7FFE70998C069012193
:104DE000C903884251D1FFE706A80078082801903E
:104DF00018D80198784400794000874404130813B8
:104E00000B1313130F00FCF7E3FD039010E04A4867
:104E100003900DE0FCF7ECFD039009E00120C003D6
:104E2000039005E00020039004A801210170FFE732
:104E30000398002828D0FFE70398400009994968A3
:104E40004A088018FBF74EF905900598102816D3EC
:104E5000FFE705A84088002811D1FFE705980F213A
:104E6000884307A9088005980E2210404008079A39
:104E700002430A80088809990968C86003E004A809
:104E800001210170FFE7FFE745E006A80078082848
:104E9000009019D80098C0467844007940008744B3
:104EA000041308130B1313130F00FCF791FD039069
:104EB00010E0214803900DE0FCF79AFD039009E013
:104EC0000120C003039005E00020039004A8012105
:104ED0000170FFE7039800281CD0FFE703980999A9
:104EE00049684A088018FBF7FDF8059005981028D6
:104EF0000BD3FFE705A84088002806D1FFE705A8E7
:104F0000008809990968C86003E004A801210170BC
:104F1000FFE7FFE7FFE70998002181660998C1666E
:104F200004A800780AB080BDF369FFFF0038014093
:104F3000004400403010024000127A008FB0134647
:104F40000590049103A80280049805994865039888
:104F5000059958228852039805995A228852059833
:104F600000218166FFE705988068012109038842D6
:104F700010D1FFE705980069002805D1FFE70598E3
:104F80005C21484A425204E005985C21FF224252CB
:104F9000FFE71AE005988068002810D1FFE7059820
:104FA0000069002805D1FFE705985C21FF224252E5
:104FB00004E005985C217F224252FFE704E0059857
:104FC0005C2100224252FFE7FFE7FFE705988421BA
:104FD000002242500598802122224250FFE7EFF341
:104FE000108006900698029001200790079981F39F
:104FF0001088059909688A6802438A6002980890B7
:10500000089880F31088FFE705988068012109035C
:10501000884209D1FFE705980069002804D1FFE71D
:1050200005982249816603E005981F498166FFE7DC
:1050300005980069002819D0FFE7FFE7EFF310801B
:1050400009900998019001200A900A9880F310882D
:105050000598006801680922520111430160019816
:105060000B900B9880F31088FFE717E0FFE7EFF352
:1050700010800C900C98009001200D900D9880F3FA
:10508000108805980068016820221143016000988B
:105090000E900E9880F31088FFE7FFE700200FB016
:1050A0007047C046FF010000794B0008F74900082F
:1050B000B0B586B00A9C15460490039102A8027010
:1050C0000193FFE704980068C06903990840401AFB
:1050D0004142484102A9097888425ED1FFE70A9817
:1050E000401C002858D0FFE7FBF7EEFC0199401A5E
:1050F0000A99884204D8FFE70A98002804D1FFE7FC
:1051000005A8032101704CE004980068006840077E
:10511000002840D5FFE704980068C06908210840CE
:10512000C008012816D1FFE7049800680821016231
:1051300004980091FFF7E2FB04988421009A425002
:10514000FFE70498782100224254FFE705A80121D7
:10515000017026E004980068C0690121C902084076
:10516000C00A012816D1FFE7049800680121C9028E
:1051700001620498FFF7C2FB049884212022425068
:10518000FFE70498782100224254FFE705A8032195
:10519000017006E0FFE7FFE794E705A80021017032
:1051A000FFE705A8007806B0B0BD000080B5024852
:1051B000FDF7DCFB80BDC046C400002080B502487E
:1051C000FDF7D4FB80BDC0464C01002081B00146F4
:1051D0006A461070107840B200280DD4FFE7684688
:1051E00000781F2108400121814004480160BFF37D
:1051F0004F8FBFF36F8FFFE701B0704780E100E092
:1052000081B001466A461070107840B2002809D477
:10521000FFE7684600781F210840012181400248CD
:105220000160FFE701B0704700E100E070B582B0B7
:10523000024601AB18700091187840B2002817D4CC
:10524000FFE701A8017849B20322D2431140184B6D
:10525000C958007840B28407E40EFF25A540A94351
:10526000009DAD01EDB2A54029431040C1501AE0A8
:1052700001A801780F22114008390323DB431940AC
:105280000A4C0959007840B28507ED0EFF26AE4062
:10529000B143009EB601F6B2AE403143104008382B
:1052A00018400151FFE702B070BDC0461CED00E0A0
:1052B00000E400E0BFF34F8F034804490160BFF3EF
:1052C0004F8FFFE700BFFDE70CED00E00400FA059B
:1052D00080B584B04A48002101704A4801704A48AC
:1052E00001704A4801604A4801604A480160A84884
:1052F0000422039002911146029AFBF7CCFB012194
:105300000398029AFBF7C7FB022003990190084615
:105310000199029AFBF7BFFB3F48029901703F4891
:10532000032202703E48019A027004B080BDC0465C
:1053300080B584B032480021017032480170324893
:105340000170324801603248016032480160E4482F
:105350000422039002911146029AFBF79CFB012163
:105360000398029AFBF797FB0220039901900846E5
:105370000199029AFBF78FFB274802990170274891
:10538000019A02702648027004B080BD80B584B0D6
:105390001A480078400700282AD5FFE7184800215E
:1053A00001701848017018480170184801601848C9
:1053B000016018480160CA48042203900291114616
:1053C000029AFBF768FB01200399019008460199B6
:1053D000029AFBF760FB02210398029AFBF75BFB42
:1053E0000D48019901700D4801700D48017002E0EF
:1053F000FFF76EFFFFE704B080BDC046AD0200209E
:10540000E90100201B0000201100002014000020F2
:1054100020000020EC0100201A000020E8010020FC
:105420001000002080B596B005A80021422203910B
:1054300000F09CFBAA482021039AFBF72CFB0120DB
:1054400000020490FFE7049880093E283AD8FFE75D
:105450000498000A05A90870049848709F487D21A7
:10546000C900A02202911146029A029BFBF754FC4C
:10547000002803D0FFE7FAF7A1FFFFE77D20C00077
:105480000090F848A02105AA4223FBF77DFE0028E2
:1054900003D0FFE7FAF792FFFFE7F2487D21C9004A
:1054A000A02201911146019A019BFBF735FC0028CF
:1054B00003D0FFE7FAF782FFFFE7FFE704984030E9
:1054C0000490C0E7864820210122FBF7E4FA8548D2
:1054D00000210180084616B080BDC04680B596B058
:1054E00005A800214222039100F040FB7C482021C6
:1054F000039AFBF7D0FA012000030490FFE7049819
:105500008009FE283AD8FFE70498000A05A9087028
:1055100004984870D3487D21C900A0220291114609
:10552000029A029BFBF7F8FB002803D0FFE7FAF78B
:1055300045FFFFE77D20C0000090CA48A02105AAD2
:105540004223FBF721FE002803D0FFE7FAF736FFDE
:10555000FFE7C4487D21C900A02201911146019AAC
:10556000019BFBF7D9FB002803D0FFE7FAF726FFE2
:10557000FFE7FFE7049840300490C0E75848202137
:105580000122FBF788FAFEF71FFB002016B080BD52
:105590000004004880B58CB00A90012000020790FA
:1055A000FFE707989D21C900884200D98EE007983F
:1055B000000A08A9087007984870AA487D21C90008
:1055C000A02206911146069A069BFBF7A5FB002830
:1055D00003D0FFE7FAF7F2FEFFE77D20C00000905E
:1055E000A048A02108AA0223FBF7CEFD002803D083
:1055F000FFE7FAF7E3FEFFE77D20C000009099483F
:10560000A02108AA0423FBF7BBFC002803D0FFE776
:10561000FAF7D4FEFFE70A9808A9042200F05AFA24
:1056200000284ED1FFE708A800210622059004912A
:1056300000F09CFA0798000A0599087007984870CE
:1056400027482021049AFBF726FA86487D21C900C5
:10565000A02203911146039A039BFBF75DFB0028F0
:1056600003D0FFE7FAF7AAFEFFE77D20C000009015
:10567000FE48A02108AA0623FBF786FD002803D0D8
:10568000FFE7FAF79BFEFFE7F8487D21C900A0225B
:1056900002911146029A029BFBF73EFB002803D0C1
:1056A000FFE7FAF78BFEFFE7EE4820210122FBF728
:1056B000F2F9F2480188491E01800BA8002101700F
:1056C00008E0FFE70798001D07906AE70BA8012193
:1056D0000170FFE70BA800780CB080BD40000020EF
:1056E000000400481800002010B586B01348016877
:1056F00001220A62016802230B62016804230B6223
:10570000016810230B62016808240C620590049262
:105710000393FDF781F80A4900220A7009490290B3
:10572000084601911146039A00F020FA0598019964
:10573000049AFDF785FD06B010BDC0464C0100205F
:105740001C0200200C02002080B584B014480168BF
:1057500001220A62016802230B62016804230B62C2
:10576000016810230B62016808230B620390029208
:10577000FDF752F80B4900220A700B490A600B49E9
:10578000402301900846009111461A4600F0EEF9B8
:1057900003980099029AFDF753FD04B080BDC046FE
:1057A000C40000208A0200208C0200204A0200204F
:1057B00080B586B00490012000020290FFE70298B5
:1057C0009D21C900884245D8FFE70298000A03A935
:1057D000087002984870A5487D21C900A022019157
:1057E0001146019A019BFBF797FA002803D0FFE7C7
:1057F000FAF7E4FDFFE77D20C00000909B48A02160
:1058000003AA0223FBF7C0FC002803D0FFE7FAF746
:10581000D5FDFFE77D20C00000909448A02103AA99
:105820000423FBF7ADFB002803D0FFE7FAF7C6FD22
:10583000FFE7049803A9042200F04CF9002804D1E2
:10584000FFE705A80021017008E0FFE70298001DAE
:105850000290B4E705A801210170FFE705A80078D0
:1058600006B080BD4000002080B584B07C48002197
:105870000170012081027B48FBF7F6F8002806D171
:10588000FFE777480178012211430170FFE701200B
:10589000C1027448FBF7E8F8002806D1FFE770481A
:1058A0000178022211430170FFE7012001036D48D6
:1058B000FBF7DAF8002806D1FFE7694801780422EF
:1058C00011430170FFE7012041036648FBF7CCF864
:1058D000002806D1FFE762480178082211430170D1
:1058E000FFE7012081035F48FBF7BEF8002806D1DF
:1058F000FFE75B480178102211430170FFE70120A8
:10590000C1035848FBF7B0F8002806D1FFE7544818
:105910000178202211430170FFE7534800210170F4
:10592000417052487D21C900A02203911146039A7B
:10593000039BFBF7F1F9002803D0FFE7FAF73EFDE0
:10594000FFE77D20C00000904848474AA02102237D
:10595000FBF71AFC002803D0FFE7FAF72FFDFFE75B
:105960007D20C000009041483F4AA0211023FBF752
:1059700007FB002803D0FFE7FAF720FDFFE73A48CE
:1059800001783B4A117040787D21C9004143394874
:1059900001601078C006002808D4FFE73448017879
:1059A00010221143017000F07BFCFFE73248012117
:1059B00009020160FFE7304800689D21C900884264
:1059C0004BD8FFE72C480168090A274A1170006884
:1059D000507026487D21C900A02202911146029AEA
:1059E000029BFBF799F9002803D0FFE7FAF7E6FCE2
:1059F000FFE77D20C00000901C481B4AA021022325
:105A0000FBF7C2FB002803D0FFE7FAF7D7FCFFE75C
:105A10007D20C00000901548134AA0210423FBF705
:105A2000AFFA002803D0FFE7FAF7C8FCFFE70E48FB
:105A300001784278114382781143C07801430029EC
:105A400005D0FFE70D480188491C0180FFE7FFE70B
:105A500009480168091D0160ADE704B080BDC0467A
:105A60004902002000040048D80100204000002026
:105A7000AD0200201C000020D401002018000020EE
:105A800080B584B000200390FBF74CFD0290FEF738
:105A90006DFDFEF781FAFCF7A3FAFEF723FBFEF794
:105AA00053FBFEF783FBFEF7B5FBFEF765FBFFF745
:105AB000DBFEFEF789F8FFE700F05AF900F0DEF9A7
:105AC000FEF78CF90248FBF717FD0190F4E7C0469A
:105AD0009400002087B0059004910392002002906A
