:020000040800F2
:1000000080060020C5000008DD1F0008D71F00087B
:1000100000000000000000000000000000000000E0
:10002000000000000000000000000000FD1F0008AC
:100030000000000000000000E11F00083537000844
:10004000D700000800000000D7000008D700000813
:10005000D7000008D7000008D7000008F901000801
:1000600000000000D7000008D7000008D7000008F3
:10007000D7000008D7000008D700000800000000E3
:10008000D70000080000000000000000ED37000865
:1000900000000000D7000008D7000008D7000008C3
:1000A00000000000D700000800000000C940000860
:1000B0000348854600F08EF800480047D148000804
:1000C000800600200448804704480047FEE7FEE71A
:1000D000FEE7FEE7FEE7FEE7FF1F0008B1000008AD
:1000E00030B50B46014600202022012409E00D46D0
:1000F000D5409D4205D31D469540491B2546954058
:1001000040191546521E002DF1DC30BDF0B51FB46C
:100110000646002082B005464024019100901BE075
:10012000019922460F46304600F020F8049A059BBC
:10013000801A994110D310461946224600F039F82A
:10014000361A8F410197224601200021009F00F0BE
:1001500030F838184D4100902046641E0028DFDC3E
:10016000019B00982946324607B0F0BD10B5202A01
:1001700004DB0846203AD040002110BD0B46D34096
:10018000D0402024A21A91400843194610BDD2B293
:1001900001E00270401C491EFBD270470022F6E7C6
:1001A00010B513460A4604461946FFF7F0FF2046ED
:1001B00010BD10B5202A04DB0146203A91400020F2
:1001C00010BD914020239C1A0346E3401943904000
:1001D00010BD0000064C0125064E05E0E36807CC83
:1001E0002B430C3C98471034B442F7D3FFF764FF1D
:1001F000F06000081061000810B5072000F0ACFEA8
:10020000402000F099F910BD72B60A4800F04AF893
:10021000094801F09BFC094800F0D6FD084801F0B0
:1002200097FE084801F000FE00F0BCF801E000F085
:10023000D7FEFCE780000020000100209C00002089
:10024000680100202001002010B50446002C01D1D7
:10025000012010BD607D002803D12075204600F0EC
:1002600031F8022060752079002803D1401E2168F2
:10027000086102E02168A068086120688068602148
:100280008843E1680843216888602068806880218D
:100290008843216908432168886001206075002037
:1002A000D7E70000054A0168914205D10449496930
:1002B00040229143024A51617047000000300240E1
:1002C0000010024008B5094A016891420DD100BFF3
:1002D0000749496940221143054A5161114649695C
:1002E00040221140009100BF00BF08BD0030024015
:1002F0000010024001462120405C022808D0042062
:10030000886300BF00222020425400BF01207047B4
:10031000086800680E2290430A6810600868006848
:10032000400840000A68106001200A6C9040CA6BC7
:10033000506001222120425400BF0022202042545C
:1003400000BF0020E3E770B5044600252120005DD2
:10035000022803D00420A06301251EE02068006865
:100360000E2188432168086020680068400840002A
:10037000216808600120216C8840E16B4860012100
:100380002120015500BF00212020015500BF606BD6
:10039000002802D02046616B8847284670BD014680
:1003A000886B704710B50020C043084908610020E1
:1003B0000861401EC8600020C860401E886200209E
:1003C000886200F0A7FD002010BD00000010024070
:1003D00070B5044600F0C8F906462546681C00289A
:1003E00002D0054800782D1800BF00F0BDF9801B31
:1003F000A842FAD370BD000078000020F0B5024694
:100400000B4600206FE00125854029461940002950
:1004100068D0374D8608B600AC5985072E0F0F25DA
:10042000B5402C400925ED06AA4201D100250FE078
:10043000304DAA4201D101250AE02F4DAA4201D137
:10044000022505E02D4DAA4201D1032500E0052536
:100450008607360FB540A5421ED1294D2D688D4324
:10046000274E356035466D688D4375603546ED68BD
:100470008D43F5603546AD688D43B56085072E0F19
:100480000F25B5402C461A4D8608B600AD59A54338
:10049000174E8708BF00F551156847000326BE4078
:1004A000B5431560C508AE0015462035AD59460761
:1004B000F70E0F26BE40B543C608B60017462037D4
:1004C000BD51D56847000326BE40B543D560556889
:1004D00001268640B5435560956847000326BE4017
:1004E000B5439560401C1D46C540002D8BD1F0BD25
:1004F000080001400004004800080048000C0048C3
:100500000004014040280FD10021084A12685162BE
:1005100000BF0749054A1268D1620A460349CA600A
:1005200000BF0121034A1170704700002001002024
:10053000FE4700006100002010B5044605484069F0
:100540002040002804D0034844612046FFF7DAFF2A
:1005500010BD00000004014078B503460A460021A2
:10056000DFE001268E4014683440002C7ED01579DF
:10057000AD07AD0F012D04D01579AD07AD0F022DDC
:1005800018D198684E000325B5400646AE43304664
:100590004E00D568B54028439860586801258D40C5
:1005A0000646AE4330461026556835402D098D402D
:1005B000284358601579AD07AD0F032D0BD0D868CF
:1005C0004E000325B5400646AE4330464E009568C2
:1005D000B5402843D8601579AD07AD0F022D15D170
:1005E000CD08AE001D462035A8594D07EE0E0F254B
:1005F000B5400646AE4330464E07F60E1569B54087
:100600002843CD08AD001E462036705118684E00B4
:100610000325B5400646AE4330461579AD07AD0F0C
:100620004E00B5402843186003263604556835400F
:10063000002D75D000BF3E4DAD69012635433C4EBF
:10064000B5613546AD69ED07ED0F009500BF00BF00
:10065000384D8E08B600A8598D072E0F0F25B540CE
:100660000646AE4330460925ED0600E058E0AB42B1
:1006700001D100250FE0304DAB4201D101250AE048
:100680002E4DAB4201D1022505E02D4DAB4201D1EB
:10069000032500E005258E07360FB5402843254D7C
:1006A0008E08B600A851274DA8680546A5432846E0
:1006B0000126360555683540002D02D005462543F4
:1006C0002846204DA860E8680546A543284601262F
:1006D000760555683540002D02D00546254328464D
:1006E000184DE86068680546A5432846012676044B
:1006F00055683540002D02D0054625432846114D4A
:10070000686028680546A5432846012636045568D2
:100710003540002D02D0054625432846094D286066
:10072000491C1568CD40002D00D01AE778BD0000A7
:100730000010024008000140000400480008004882
:10074000000C004800040140024613690B40002BD6
:1007500001D0012000E000207047002A01D0816113
:1007600000E08162704700000148006870470000A7
:100770007000002002464120805C20282FD100BF5D
:100780004020805C012801D10220704701234020D5
:10079000835400BF2423412083541068006840081C
:1007A0004000136818601068006801231B03984319
:1007B00013681860106800680843136818601068B0
:1007C00000680123184313681860202341208354D4
:1007D00000BF00234020835400BF0020D5E7022043
:1007E000D3E710B502460B464120805C20282ED16D
:1007F00000BF4020805C012801D1022010BD0124EF
:100800004020845400BF2424412084541068006890
:100810004008400014682060106801680F2424021A
:100820000846A043014618020143106801601068A1
:10083000006801242043146820602024412084544F
:1008400000BF00244020845400BF0020D6E70220CF
:10085000D4E7000010B50446002C01D1012010BDE2
:100860004120005D002805D100214020015520468F
:1008700000F0C8FA24214120015520680068400892
:100880004000216808600F210906606888432168DC
:100890000861206880680121C90388432168886055
:1008A000E068012806D10121C903A0680843216836
:1008B000886005E021218902A068084321688860DA
:1008C000E068022807D1206840680121C902084376
:1008D0002168486006E0206840680121C902884319
:1008E00021684860206840681449084321684860CE
:1008F0002068C0680121C90388432168C860616914
:1009000020690843A169090208432168C860216A77
:10091000E0690843216808602068006801210843F5
:1009200021680860002060642021412001550020DA
:100930002063002142200155002090E70080000242
:10094000FFB585B004460F461E46002004904120A6
:10095000005D20287ED1206880690121C9030840FC
:10096000C00B002802D0022009B0F0BD00BF40201B
:10097000005D012801D10220F6E701214020015548
:1009800000BF2421412001550020606400BFE068C1
:10099000012809D1B805800D012149034018090338
:1009A0004018C91388430AE0B805800D0121C90227
:1009B00040188900401809034018C913884321686A
:1009C0004860FFF7D1FE0546206880692021084075
:1009D00040090390206880691021084000090290B6
:1009E00022E0701C002813D0FFF7BEFE401BB0426F
:1009F00001D8002E0CD1202141200155606C084304
:100A0000606400BF00214020015500BF0120ABE71A
:100A1000206880692021084040090390206880698F
:100A200010210840000902900398002802D1029882
:100A30000028D6D0206880691021084000090028CD
:100A400019D13346002220212046009502F0F0F80B
:100A5000002800E035E001D0012085E72020216852
:100A6000C86120214120015500BF002140200155CF
:100A700000BF002078E73346002220212046009561
:100A800002F0D6F8002801D001206DE7102021687F
:100A9000C86120202168C8610498401C0490049912
:100AA0000798814200D272E7202141200155606CF5
:100AB0000843606400BF00214020015500BF0120B1
:100AC00052E7022050E70000FFB581B00446164609
:100AD0001F464120005D202877D100BF4020005DE7
:100AE000012802D1022005B0F0BD012140200155AE
:100AF00000BFFFF739FE054619230122D103204626
:100B0000009502F095F8002801D00120EBE72221A2
:100B10004120015510214220015500206064666289
:100B200067856063608DFF280BD9012020853F48D1
:100B30000090208DC2B20B052046029902F05AF8AF
:100B40000BE0608D208539480090208DC2B20123D2
:100B50005B062046029902F04DF843E02A46204603
:100B60000A9902F0A5F8002801D00120BBE720680F
:100B7000406A616A0870606A401C6062208D401E95
:100B80002085608D401E6085608D00282AD0208DD4
:100B9000002827D100950022802120460A9B02F0E0
:100BA00047F8002801D001209DE7608DFF280DD96E
:100BB000FF20208500200090208DC2B201231B065B
:100BC0002046029902F016F80CE02CE0608D20859A
:100BD00000200090208DC2B201235B0620460299BE
:100BE00002F008F8608D0028B8D12A4620460A99FC
:100BF00002F0CCF8002801D0012074E72020216801
:100C0000C861206840680A4908402168486020217E
:100C10004120015500214220015500BF40200155CF
:100C200000BF00205FE702205DE700000024008095
:100C300000E800FEFFB581B0044617464120005D84
:100C400020287DD100BF4020005D012802D1022074
:100C500005B0F0BD01214020015500BFFFF784FD24
:100C6000054619230122D1032046009501F0E0FF3B
:100C7000002801D00120EBE721214120015510215E
:100C8000422001550020606467620498608500205E
:100C90006063608DFF2803D9FF2020850E0503E0E7
:100CA000608D208501267606208D002817D0606A89
:100CB000007821688862606A401C6062608D401E16
:100CC0006085208D401E20853D480090208D401C71
:100CD000C2B233462046029901F08CFF08E0384842
:100CE0000090208DC2B233462046029901F082FF67
:100CF00043E02A4620460A9902F07BF8002801D0FA
:100D00000120A5E7606A007821688862606A401C5B
:100D10006062608D401E6085208D401E2085608D44
:100D200000282AD0208D002827D10095002280217C
:100D300020460A9B01F07CFF002802D0012087E7B3
:100D40003CE0608DFF280CD9FF202085002000901A
:100D5000208DC2B201231B062046029901F04AFFF2
:100D60000BE0608D208500200090208DC2B2012311
:100D70005B062046029901F03DFF608D0028B8D146
:100D80002A4620460A9902F001F8002801D00120E5
:100D90005EE720202168C861206840680949084052
:100DA0002168486020214120015500214220015541
:100DB00000BF4020015500BF002049E7022047E75F
:100DC0000020008000E800FE10B504460B492068B2
:100DD000884211D10A48C069012149058843084960
:100DE000C86149150920C006FFF708FB01218902E7
:100DF0000920C006FFF702FB10BD000000540040B0
:100E00000010024010B586B00446142101A8FFF777
:100E1000C5F91B49206888422FD100BF1948406995
:100E200001214904084317494861084640690121E6
:100E300049040840009000BF00BF03204002019019
:100E400012200290002003900320049004200590BB
:100E500001A90920C006FFF77FFB00BF0948C06950
:100E60000121490508430749C8610846C0690121B5
:100E700049050840009000BF00BF06B010BD00004B
:100E800000540040001002400348006803490978FC
:100E90004018014908607047700000207800002069
:100EA00010B5064800681021084304490860032073
:100EB00000F006F800F030F8002010BD00200240DD
:100EC00070B50446104801787D20C000FFF708F98E
:100ED000064631460D480068FFF702F9054600F066
:100EE00053FF002801D0012070BD042C07D200223E
:100EF0002146501E00F06AF80548046001E0012018
:100F0000F2E70020F0E70000780000207C000020DD
:100F1000740000207047000008B500BF0D488069CC
:100F2000012108430B49886108468069C007C00F4A
:100F3000009000BF00BF00BF0846C0690904084315
:100F40000449C8610846C06909040840009000BF10
:100F500000BF08BD001002400146002905DBCB069A
:100F6000DB0E01229A40024B1A6000BF704700005E
:100F700080E200E00146002915DBCB06DB0E0122F2
:100F80009A400A4B1A6000BF00BF00BFBFF34F8FEB
:100F900000BF00BF00BF00BF00BF00BFBFF36F8F27
:100FA00000BF00BF00BF00BF7047000080E100E04D
:100FB0000146002905DBCB06DB0E01229A40024BDD
:100FC0001A6000BF7047000000E100E070B5044601
:100FD0000D4616462946204603F0A4F870BD0000D1
:100FE00000BF00BF00BF00BF00BFBFF34F8F00BFF7
:100FF00000BF00BF06480749C86000BF00BF00BF70
:10100000BFF34F8F00BF00BF00BF00BF00BFFDE7B1
:101010000400FA0500ED00E0F8B5044600260025BE
:10102000012109042068084088427AD100274B48F2
:10103000C0690903084000280DD100BF4748C069B6
:1010400008434649C8610846C06909040840009041
:1010500000BF00BF012742480068FF21013108405E
:10106000002816D13E48006808433D490860FFF754
:101070007BFB064606E0FFF777FB801B642801D95F
:101080000320F8BD36480068FF21013108400028E0
:10109000F1D03248006A0321090208400546002DBC
:1010A0002DD060680840A84229D02C48006A8843A7
:1010B00005462A48006A01210904084327490862B5
:1010C0000846006A01210904884324490862084649
:1010D0000562E807C00F002811D0FFF745FB064660
:1010E00007E0FFF741FB801B1E49884201D903201E
:1010F000C7E71A48006A022108400028F1D01748C3
:10110000006A0321090288436168084313490862A1
:10111000012F05D10846C069090488430F49C861F9
:1011200000BF2078C007C00F002807D00B48006B15
:1011300080088000A16808430849086320212068CE
:101140000840202807D10548006B10218843E1683A
:10115000084302490863002093E7000000100240A2
:10116000007000408813000070B504460D46002C46
:1011700001D1012070BD52480068C007C00FA842CD
:101180000ED24F4800684008400028434C49086090
:1011900008460068C007C00FA84201D00120E9E757
:1011A000022120680840022814D104212068084048
:1011B000042807D1434840680721090288434018A2
:1011C000404948603F484068F0218843A16808438F
:1011D0003C4948602078C007C00F00283BD06068B9
:1011E000012808D137480068012149040840002837
:1011F00015D10120BEE76068022808D13148006897
:10120000012149060840002809D10120B2E72D48F4
:10121000006802210840002801D10120AAE72948DE
:101220004068800880006168084326494860FFF7ED
:101230009BFA064607E0FFF797FA801B224988428F
:1012400001D9032096E71F4840680C2108406168D7
:1012500089008842EFD11A480068C007C00FA84231
:101260000ED9174800684008400028431449086018
:1012700008460068C007C00FA84201D0012079E7E6
:10128000042120680840042808D10E48406807213E
:1012900009028843E16808430A49486000F032F8CF
:1012A00008494968F02211400909084A515CC840C0
:1012B000074908600320FFF703FE00205AE70000FB
:1012C000002002400010024088130000D86000088F
:1012D0007C00002001480068704700007C0000206E
:1012E00000B5FFF7F7FF05494968072212021140D0
:1012F000090A034A515CC84000BD000000100240CA
:10130000E8600008F8B5002400250027002600202A
:1013100000901D4844680C20204000282DD004284F
:1013200002D0082828D102E01848009028E00F20B9
:1013300080042040800C16490E5C1348C06A0007E8
:10134000000F14490D5C0120000420400121090414
:1013500088420AD12A4600230C481946FEF7D6FED9
:10136000314602F0B9FE074604E00B48314602F070
:10137000B3FE0746009703E000BF0448009000BF9B
:1013800000BF0098F8BD00000010024000127A0073
:10139000B8600008C860000800093D00FEB50446BA
:1013A000002C01D10120FEBD2078C007C00F00280D
:1013B00071D0FC4840680C21084004280BD0F94843
:1013C00040680840082812D1F64840680121090405
:1013D000084088420BD1F3480068012149040840C5
:1013E00000286BD06068002868D10120DBE700BFCF
:1013F0006068012807D1EB4800680121090408430F
:10140000E849086031E0606800280ED1E5480068CE
:10141000012109048843E349086008460068012166
:1014200089048843DF4908601FE0606805280ED101
:10143000DC480068012189040843DA49086008464D
:101440000068012109040843D64908600DE0D54829
:101450000068012109048843D249086008460068F1
:10146000012189048843CF49086000BF60680028D3
:1014700012D0FFF779F9054606E0FFF775F9401B32
:10148000642801D903208EE7C64800680121490479
:1014900008400028F1D011E0FFF766F9054606E0A4
:1014A000FFF762F9401B642801D903207BE7BD48A0
:1014B00000680121490408400028F1D10221206878
:1014C0000840022861D1B74840680C210840002834
:1014D0000BD0B4484068084008281BD1B148406888
:1014E000012109040840002814D1AE4800680221F7
:1014F0000840002804D0E068012801D0012052E70C
:10150000A8480068F82188432169C9000843A54913
:1015100008603AE0E068002820D0A2480068012175
:101520000843A0490860FFF71FF9054606E0FFF7EA
:101530001BF9401B022801D9032034E799480068B1
:10154000022108400028F2D096480068F82188431C
:101550002169C90008439349086016E09148006872
:10156000400840008F490860FFF7FEF8054606E096
:10157000FFF7FAF8401B022801D9032013E7894836
:101580000068022108400028F2D1082120680840A4
:10159000082831D1E069002817D08248406A01212B
:1015A000084380494862FFF7DFF8054606E0FFF789
:1015B000DBF8401B022801D90320F4E67948406A91
:1015C000022108400028F2D016E07648406A400820
:1015D000400074494862FFF7C7F8054606E0FFF788
:1015E000C3F8401B022801D90320DCE66D48406A9D
:1015F000022108400028F2D1042120680840042874
:1016000073D1002001906748C0698906084000280E
:101610000ED100BF6348C06908436249C8610846EB
:10162000C06909040840009000BF00BF012001907C
:101630005D480068FF2101310840002816D15A4852
:101640000068084358490860FFF78EF8054606E031
:10165000FFF78AF8401B642801D90320A3E652480B
:101660000068FF21013108400028F1D000BFA068C8
:10167000012806D14B48006A012108434949086204
:101680002BE0A06800280CD14648006A40084000C2
:10169000444908620846006A0421884341490862B7
:1016A0001BE0A06805280CD13E48006A04210843CD
:1016B0003C4908620846006A01210843394908622A
:1016C0000BE03848006A4008400036490862084686
:1016D000006A042188433349086200BFA0680028DB
:1016E00013D0FFF741F8054608E02BE0FFF73CF880
:1016F000401B2E49884201D9032054E62948006A3C
:10170000022108400028F1D011E0FFF72DF805462E
:1017100007E0FFF729F8401B2449884201D903203C
:1017200041E62048006A022108400028F1D10198D2
:10173000012806D11B48C0690121090788431949BE
:10174000C86100BF102120680840102860D160697E
:1017500001282DD11348406B0421084311494863E7
:101760000846406B012108430E494863FEF7FCFF21
:10177000054606E0FEF7F8FF401B022801D90320CA
:1017800011E60848406B022108400028F2D00548C5
:10179000406BF8218843A169C900084301494863A7
:1017A00036E0000000100240007000408813000086
:1017B0006069401D00280FD15A48406B04218843BE
:1017C000584948630846406BF8218843A169C9001D
:1017D0000843544948631BE05248406B04210843C6
:1017E000504948630846406B400840004863FEF794
:1017F000BBFF054606E0FEF7B7FF401B022801D9F4
:101800000320D0E54748406B022108400028F2D170
:10181000206A00284FD0434840680C21084008281F
:1018200064D0206A022847D13E4800680121090699
:1018300088433C490860FEF797FF054606E0FEF73F
:1018400093FF401B022801D90320ACE5354800680E
:101850000121490608400028F1D100BF3148C06A83
:1018600000090001E16A08432E49C862616AA06A62
:1018700008432C4949683D221204914308432949F1
:10188000486000BF08460068012109060843254951
:101890000860FEF769FF054606E0FEF765FF401B9E
:1018A000022801D903207EE51E480068012149066F
:1018B00008400028F1D033E01A48006801210906E9
:1018C000884318490860FEF74FFF054606E0FEF71B
:1018D0004BFF401B022801D9032064E51148006832
:1018E0000121490608400028F1D119E0206A0128A9
:1018F00000D158E50B484668C76A01200004304013
:10190000616A88420AD13907090FE06A814205D12C
:101910000F2080043040A16A884201D0012042E5B6
:10192000002040E500100240FFB581B004460D469E
:101930001646002C02D1012005B0F0BDE06F002852
:1019400005D1002178200155204600F0F9FE242021
:10195000E067206800684008400021680860606A0D
:10196000002802D0204601F09BFF204602F012FA28
:10197000012800D1E0E7206880680121890308433D
:1019800021688860206880680121C9038843284352
:101990002168886077050498000407432068006880
:1019A0000749084038432168086020680068012121
:1019B000084321680860204601F0EAFFBCE7000008
:1019C000FFFF00FCF0B506460C46174600253068C0
:1019D0004068124908400546FF2000042840000CDA
:1019E000E0701F2000022840000A6070A806800EE8
:1019F000A070072040032840400B2070002F0BD11F
:101A0000E07800F0EEFAE070607800F0EAFA6070DA
:101A1000A07800F0E6FAA0700020F0BD3FFFFF00C4
:101A2000F0B505460C46174600262868806A6060B7
:101A3000286800694004400CA060286800681249CA
:101A4000084006463F2000043040000C20707F20F4
:101A500000023040000A60707006400EA070012045
:101A600080053040800DE070002F0BD1207800F011
:101A7000B8FA2070607800F0B4FA6070A07800F0D6
:101A8000B0FAA0700020F0BD7F7F7F0070B50446E3
:101A90000125002C01D1012070BD607F002803D1F9
:101AA0002077204600F062F8022060772068C06846
:101AB00010210840000900283FD100BFCA2021683A
:101AC000486253202168486200BF204601F08FFD24
:101AD0000546002D1DD1206880681B4908402168FB
:101AE00088602169606808436169084321688968E2
:101AF0000843216888602168E068086120680069FF
:101B000021890904084321680861204601F097FDF6
:101B10000546002D0CD12068006C01218904884302
:101B2000216808642068006CA16908432168086482
:101B300000BFFF202168486200E00025002D01D190
:101B4000012060772846A7E7BFFF8FFF054A01689D
:101B5000914205D10449096AD2139143024A1162A4
:101B6000704700000028004000100240054A01684C
:101B7000914205D10449096AD2131143024A116204
:101B8000704700000028004000100240F8B50546EC
:101B90000C4617460020009000BF287F012801D185
:101BA0000220F8BD0120287700BF02206877002FAF
:101BB00009D1607810210840102804D16078EF2105
:101BC00008400A306070002F11D1E07801F002FD6A
:101BD0000304607801F0FEFC00020343A07801F0EA
:101BE000F9FC034320784003034300930AE0E078C4
:101BF0000004617809020843A17808432178490369
:101C00000843009000BFCA20296848625320296811
:101C1000486200BF284601F0EAFC0646002E08D1C3
:101C20000B490098084029684860284601F007FDE4
:101C30000646002E01D10120687700BFFF202968E9
:101C4000486200BF00BF0020287700BF3046A8E7E9
:101C50003FFFFF00F8B504460D46174600200090F0
:101C600000BF207F012801D10220F8BD012020778C
:101C700000BF02206077002F1BD1206880684021C0
:101C80000840002800D002E00020E87000BF28785B
:101C900001F0A0FC0304687801F09CFC00020343FF
:101CA000A87801F097FC0343E8788005034300938C
:101CB00014E02068806840210840002800D002E03D
:101CC0000020E87000BF2878000469780902084302
:101CD000A9780843E97889050843009000BFCA2025
:101CE0002168486253202168486200BF204601F005
:101CF0007EFC0646002E17D1134900980840216843
:101D00000860206880680121890488432168886010
:101D10002969E86808432168896808432168886060
:101D2000204601F08CFC0646002E01D10120607790
:101D300000BFFF202168486200BF00BF002020775D
:101D400000BF304691E700007F7F7F0070B50446FA
:101D500000250C482168C860FEF706FD054608E02E
:101D6000FEF702FD401B7D21C900884201D90320F6
:101D700070BD2068C068202108400028F0D00020F5
:101D8000F6E700005979010070B504462546681E43
:101D90000949884201D901200CE0681E07494861C1
:101DA0000321081F02F0BEF90020044988610720C2
:101DB0000861002070BD0000FFFFFF0000E000E0B0
:101DC0007047704710B50446002C01D1012010BDAA
:101DD0003D20005D002805D100213C200155204612
:101DE00000F036F802213D200155211D206801F048
:101DF00007FD01214620015500BF3E2001553F202F
:101E00000155402001554120015500BF00BF42202F
:101E1000015543200155442001554520015500BF7F
:101E20003D2001550020D2E710B504460649206840
:101E3000884208D10548C069891588430349C861AB
:101E40001320FFF797F810BD00200040001002405B
:101E500038B504460D492068884215D100BF0C48AA
:101E6000C069891508430A49C8610846C0698915CF
:101E70000840009000BF00BF002211461320FFF76A
:101E8000A5F81320FFF794F838BD000000200040AB
:101E90000010024001463D20405C012801D0012095
:101EA000704702233D2043540868C068012318434B
:101EB0000B68D8600E4B0868984203D00D4B086839
:101EC00098420CD1086880684207520F062A0CD04D
:101ED00008680068012318430B68186005E008686B
:101EE0000068012318430B6818600020D8E7000041
:101EF000002C01400004004001460868C06840080A
:101F000040000A68D06000BF0868006A0A4A1040B2
:101F100000280BD10868006A92101040002805D1F3
:101F200008680068400840000A68106000BF01228D
:101F30003D20425400207047111100007047704747
:101F400070477047704710B5044602F0FDFA10BDA7
:101F500010B504460949206888420ED108488069B6
:101F6000012189038843064988610E210920C006A2
:101F7000FEF744FA1B20FEF7FDFF10BD00380140BC
:101F80000010024010B50446FEF7EEFB0C49086055
:101F9000FEF7EAFB0B4908600B480078401CC0B212
:101FA00009490870402801D9002008700748064AEE
:101FB000127881180122064800F0A2FC10BD000032
:101FC00044000020480000202600002004020020D9
:101FD00068010020704700BFFEE7704700BFFEE7C2
:101FE0007047014600BFF020084000090A2358430B
:101FF00002460807000F8018C0B27047704770474C
:102000000000000000000000320111410000000843
:1020100070B504462068C568206806690220304013
:10202000022819D12840022816D1401F21680861D2
:1020300001202077206880698007800F002803D066
:102040002046FFF77BFF05E02046FFF778FF20469C
:10205000FFF776FF002020770420304004281AD1B3
:102060002840042817D1C043216808610220207746
:1020700020688069032109020840002803D0204617
:10208000FFF75CFF05E02046FFF759FF2046FFF70A
:1020900057FF0020207708203040082819D1284019
:1020A000082816D1C04321680861042020772068E1
:1020B000C0698007800F002803D02046FFF73EFF4D
:1020C00005E02046FFF73BFF2046FFF739FF0020E1
:1020D00020771020304010281AD12840102817D11E
:1020E000C04321680861082020772068C069032167
:1020F00009020840002803D02046FFF71FFF05E033
:102100002046FFF71CFF2046FFF71AFF002020772C
:10211000F007C00F00280AD0E807C00F002806D03B
:102120000120C04321680861204600F029F8802082
:102130003040802808D12840802805D1C04321683C
:1021400008612046FFF73CFE40203040402808D17F
:102150002840402805D1C043216808612046FFF788
:10216000F0FE20203040202808D12840202805D12A
:10217000C043216808612046FFF723FE70BD0000C0
:1021800010B504463E48007800280CD000203D4998
:102190000968486200BF3C483A490968C86201467C
:1021A0003848C1606AE040210920C006FEF7CCFA39
:1021B00000280FD100BF354832490968C86201467E
:1021C0003048C16000BF32480078012148403149A1
:1021D000087010E000BF2C482A490968C86201460F
:1021E0002848C16000BF2B480078002803D0284849
:1021F000007828490870264800784006000E2449D7
:10220000087024480078C007C00F0978401820499A
:102210000870204800787F280ADD08460078FF28EB
:1022200006D11D49087001201C4908701849087022
:102230001A48007800281ED017480078401CC0B209
:1022400015490870052816D100200870104800783C
:10225000C006C00E1249114A127888540F480078FF
:10226000401CC0B20D4908700B2804DD0020087026
:1022700001200349087000200649087010BD0000C5
:102280006700002020010020FF2F0000FE5F0000FB
:1022900062000020610000205F000020600000203C
:1022A0004402002070B5044600BF01F077FF0546E8
:1022B000012001F085FF20680068FF21213188435B
:1022C00021680860284601F07BFF00BF00BF01F0D5
:1022D00065FF0546012001F073FF20688068400813
:1022E000400021688860284601F06AFF00BF206E28
:1022F000012810D100BF01F051FF0546012001F077
:102300005FFF206800681021884321680860284624
:1023100001F056FF00BF2068806840210840402837
:1023200025D100BF01F03AFF0546012001F048FF2A
:10233000206880684021884321688860284601F031
:102340003FFF00BF606F002811D00020616F48631D
:10235000606FFDF7CFFF002809D0606FFEF71FF810
:10236000202804D1102184200151032070BD0021B8
:102370005A2001530F2021680862206880690821D3
:1023800008432168886120218020015100202066B7
:1023900000BFEBE7F0B585B004462068C56920684A
:1023A000066820688768E34828400390039800285F
:1023B0000FD12020284000280BD0202030400028BA
:1023C00007D0A06E002802D02046A16E884705B035
:1023D000F0BD039800287DD0F807C00F002803D176
:1023E000D54830400028F6D0E807C00F00280DD0AF
:1023F000FF2001303040002808D001202168086209
:1024000084200059012108438421085102202840DA
:1024100000280CD0F807C00F002808D0022021683F
:1024200008628420005904210843842108510420B3
:10243000284000280CD0F807C00F002808D004203E
:102440002168086284200059022108438421085130
:1024500008202840002810D020203040002803D138
:10246000F807C00F002808D00820216808628420DF
:10247000005908210843842108510120C002284046
:1024800000280ED0012080063040002809D001200D
:10249000C002216808628420005920210843842159
:1024A000085184200059002854D0202028400028BA
:1024B00009D020203040002805D0A06E002802D08E
:1024C0002046A16E884784200059029020688068C9
:1024D000402100E03FE00840402804D02821029835
:1024E0000840002830D0204601F0DEFA20688068DD
:1024F00040210840402823D100BF01F04FFE019049
:10250000012001F05DFE2068806840218843216839
:102510008860019801F054FE00BF606F00280BD066
:102520008648616F4863606FFDF70DFF002811D08A
:10253000606F416B88470DE02046FFF704FD09E01E
:102540002046FFF700FD05E02046FFF7FCFC0021D8
:10255000842001513BE7206E01287DD110202840C6
:10256000002879D0102030400028FAD010202168AF
:102570000862206880684021084040286ED1606F62
:102580000068406880B201900198002863D058200C
:10259000015B019881425EDD5A2101980853606F0A
:1025A000806920284CD000BF01F0F8FD0090012088
:1025B00001F006FE20680068FF2101318843216890
:1025C0000860009801F0FCFD00BF00BF01F0E6FDCF
:1025D0000090012001F0F4FD206880684008400070
:1025E00021688860009801F0EBFD00BF00BF01F09A
:1025F000D5FD0090012001F0E3FD206880684021B6
:10260000884321688860009801F0DAFD00BF20212E
:10261000802001510020206600BF01F0BFFD009026
:10262000012001F0CDFD2068006810218843216859
:102630000860009801F0C4FD00BF606FFDF75AFE0E
:10264000022060665820025B5A20005B101A81B29B
:102650002046FFF777FCBAE64FE0FFE75820015B22
:102660005A20005B081A80B201905A20005B0028B3
:1026700042D0019800283FD000BF01F08FFD0090AC
:10268000012001F09DFD20680068FF212131884371
:1026900021680860009801F093FD00BF00BF01F0C1
:1026A0007DFD0090012001F08BFD206880684008CE
:1026B000400021688860009801F082FD00BF202161
:1026C0008020015100202066A06600BF01F066FD59
:1026D0000090012001F074FD2068006810218843FB
:1026E00021680860009801F06BFD00BF0220606661
:1026F00020460199FFF726FC69E680202840002843
:102700000AD080203040002806D0E06E002802D099
:102710002046E16E88475AE640202840002807D02E
:1027200040203040002803D0204601F0FDF94EE65D
:1027300000BF4CE60F08000020010004913A000899
:1027400010B586B00446142101A8FDF727FD1E49E7
:102750002068884235D100BF1C4880690121890367
:1027600008431A49886108468069012189030840A5
:10277000009000BF00BF00BF14484069C900084373
:102780001249486108464069012149040840009007
:1027900000BF00BF0E200190022002900020039095
:1027A000032004900120059001A90920C006FDF72F
:1027B000D3FE002211461B20FEF708FC1B20FEF76B
:1027C000F7FB06B010BD00000038014000100240C9
:1027D000FFB585B004460D461746802000592028D5
:1027E00073D1002D01D0002F02D1012009B0F0BD1E
:1027F00001210903A068884208D12069002805D179
:10280000E807C00F002801D00120EFE70021842055
:10281000015122218020015100202066FDF7A4FFF4
:102820000290582007535A20075300BF0121090383
:10283000A06888420AD12069002803D12F495C2072
:10284000015314E0FF215C20015310E0A068002830
:102850000AD12069002803D1FF215C20015306E042
:102860007F215C20015302E000215C20015300BF66
:102870005C20005B039001210903A068884205D118
:102880002069002802D10026049502E02E4600208F
:10289000049028E008980090002220212046029B06
:1028A00001F0B8FB002804D0202180200151032032
:1028B0009CE7002E0AD12068808C03990840049977
:1028C00008800498801C049007E015E02068808C44
:1028D0000399C9B208403070761C5A20005B401E34
:1028E00081B25A2001535A20005B0028D2D1202106
:1028F00080200151002079E7022077E7FF010000E6
:10290000F8B504460D46164680200059202834D1DB
:10291000002D01D0002E01D10120F8BD01210903B5
:10292000A068884208D12069002805D1E807C00FB7
:10293000002801D00120F0E70020206620684068D0
:102940000121C9050840002811D000BF01F026FC74
:102950000746012001F034FC206800680121890647
:10296000084321680860384601F02AFC00BF32465F
:102970002946204601F0CEFACFE70220CDE7FFB589
:1029800083B004460D461746E06F202869D1002D1C
:1029900001D0002F02D1012007B0F0BD01210903B1
:1029A000A068884208D12069002805D1E807C00F37
:1029B000002801D00120EFE70021842001512120CF
:1029C000E067FDF7D1FE01905020075352200753D6
:1029D00001210903A068884205D12069002802D19D
:1029E0000026029502E02E460020029023E0069881
:1029F0000090002280212046019B01F00BFB002863
:102A000003D02020E0670320C6E7002E09D10298FA
:102A10000088C005C00D216808850298801C0290BE
:102A200003E0307821680885761C5220005B401E48
:102A300081B2522001535220005B0028D7D1069862
:102A40000090002240212046019B01F0E3FA00287B
:102A500003D02020E06703209EE72020E0670020CD
:102A60009AE7022098E70168896902221140490823
:102A7000002902D000210268916201688969C907B2
:102A8000C90F012251405140002904D101688969D0
:102A90001143026891617047F7B584B004460E4651
:102AA0000020039020688769002506980290102076
:102AB0003840102854D12168C8613DE0701C0028BE
:102AC0003AD0FDF751FE0299401AB04201D8002ECB
:102AD00032D12068406801218903084001904220DA
:102AE000005D00902068806949000840C00B002804
:102AF0000ED04910019888420AD00098202807D0AB
:102B000020684068084321684860FDF72DFE029068
:102B10000AE0FDF729FE0299401A192804D920205D
:102B200005430120039006E02068806920210840C9
:102B300040090028EDD000BF2068806920210840AE
:102B40004009002802D103980028B7D00398002834
:102B500002D120202168C861042005430120039090
:102B600020688769FF2001303840FF210131884209
:102B700006D10120054300022168C86101200390AD
:102B800001208002384001218902884206D10820B4
:102B90000543C0012168C861012003900120400263
:102BA000384001214902884206D102200543000233
:102BB0002168C861012003900398002815D02046A1
:102BC000FFF751FF206840680949084021684860C4
:102BD000606C28436064202141200155002142207F
:102BE000015500BF4020015500BF039807B0F0BD5C
:102BF00000E800FEF8B5069C8D05AD0D1604FF2714
:102C00003F043E4035431D4325436D006D0800954C
:102C100005686E68650D0127BF023D40034F3D43C7
:102C2000AE43009D2E4305686E60F8BDFF63FF0351
:102C3000F8B504460D4617461E462CE031462046A0
:102C4000069AFFF729FF002801D00120F8BD701C6B
:102C5000002820D0FDF788FD0699401AB04201D81F
:102C6000002E18D1206880692840A84201D1012097
:102C700000E00020B8420ED1606C2021084360645F
:102C80004120015500214220015500BF402001553F
:102C900000BF0120DAE7206880692840A84201D1FE
:102CA000012000E00020B842C8D00020CEE700009C
:102CB000F8B504460E46174600255AE03A46314616
:102CC0002046FFF7E9FE002800D001252068806932
:102CD00020210840400900282FD0002D2DD1206848
:102CE0008069042108408008002803D0208D002836
:102CF00000D000BF2068806910210840000900282A
:102D000019D010202168C861042060642020216847
:102D1000C861206840681C4908402168486020213B
:102D20004120015500214220015500BF402001559E
:102D300000BF012501E000206064FDF715FDC01B08
:102D4000B04201D8002E14D1002D12D12068806924
:102D500004210840800800280BD1606C2021084322
:102D600060644120015500BF00214020015500BF93
:102D7000012520688069042108408008002801D1CD
:102D8000002D9BD02846F8BD00E800FE70B5044633
:102D90000D46164624E0324629462046FFF77CFEC3
:102DA000002801D0012070BDFDF7DEFC801BA84289
:102DB00001D8002D14D120688069202108404009E5
:102DC00000280DD1606C084360644120015500214A
:102DD0004220015500BF4020015500BF0120E2E71D
:102DE000206880692021084040090028D3D00020B5
:102DF000D9E770B504460D46164628E03246294606
:102E00002046FFF749FE002801D0012070BD681C54
:102E100000281CD0FDF7A8FC801BA84201D8002D7B
:102E200015D12068806902210840400800280ED191
:102E3000606C20210843606441200155002142203C
:102E4000015500BF4020015500BF0120DEE720688A
:102E500080690221084040080028CFD00020D5E733
:102E600000B587B02A480068002802D1032007B0C7
:102E700000BD28480068002801D10220F7E712228F
:102E8000002102A801F0BDFE23480088103800048C
:102E9000010E68460172204800781038C1B26846B9
:102EA00041727D23DB001A46A0211C48FDF748FD36
:102EB000002801D0FDF7A8F97D20C000122302AA46
:102EC000A02100901548FDF7B5FE002801D0FDF7C0
:102ED0009BF90A20FDF77CFA0F48006810380E496C
:102EE00008600C480068401E0A49086008460068EF
:102EF000002805D10A4800784008400008490870B9
:102F00000748007802218843054908700020AEE791
:102F10001000002014000020080000209C00002069
:102F20002000002000B585B0534800780221884376
:102F30005149087008460078400840000870002099
:102F40004E4908604E49086001204E49086005223C
:102F500000214D4801F055FE102168460171002105
:102F6000417101200003494908607D23DB001A46B6
:102F7000A0214748FDF7E4FC002801D0FDF744F903
:102F80007D20C000022301AAA02100904048FDF747
:102F900051FE002801D0FDF737F97D20C000102335
:102FA00001AAA02100903A48FDF78EFD002801D02B
:102FB000FDF72AF942E068460079002804D1684606
:102FC0004079002800D13EE0684600790102684659
:102FD000407901432B4801600068401C2949086082
:102FE00027480068401C26490860284800681030BF
:102FF00026490860084600880004010E68460171F1
:1030000022480178684641717D20C000022301AA50
:10301000A02100901E48FDF70DFE002801D0FDF70D
:10302000F3F87D20C000102301AAA02100901848C9
:10303000FDF74AFD002801D0FDF7E6F813480068C7
:1030400014498842B7D900BF0D480068002805D050
:103050000948007801210843074908700B480068B7
:103060000C49884205D904480078022108430249E6
:10307000087005B000BD00002000002010000020F6
:10308000140000200C000020000000200800002098
:103090009C000020EF3F00001CB50446FDF764FBD8
:1030A0001D4908601D480068002801D102201CBD90
:1030B0001B48008810380004010E6846017118484A
:1030C00000781038C1B2684641717D23DB001A4692
:1030D000A0211448FDF734FC002801D0FDF794F836
:1030E0007D20C000022301AAA02100900D48FDF719
:1030F000A1FD002801D0FDF787F87D20C000102336
:103100002246A02100900748FDF7DEFC002801D0F0
:10311000FDF77AF80020CAE7100000201400002014
:10312000080000209C00002010B50D480068002811
:1031300015D00C480078102188430A490870FDF723
:1031400013FB07490968401A642808D3054800782A
:10315000102108430349087000200149086010BD90
:10316000100000202000002000B587B001224D494A
:103170004D48FEF755FC01224C494B48FEF722FC16
:103180004B4800684B49884208D94B4800780221D7
:10319000084349490870012007B000BD4448008831
:1031A0000004010E68460172414801786846417288
:1031B000424800880004010E684681723F48017849
:1031C0006846C1723E480178684601733C484178C0
:1031D000684641733A488178684681733848C178B7
:1031E0006846C17336480179684601742F48817872
:1031F000684641742D484178684681742B48C178EF
:103200006846C174274801786846017525484178A9
:1032100068464175234881786846817505220021FA
:10322000274801F0EEFC7D23DB001A46A02125484B
:10323000FDF786FB002801D0FCF7E6FF7D20C000EB
:10324000122302AAA02100901E48FDF7F3FC0028DB
:1032500001D0FCF7D9FF0A20FDF7BAF8144800683E
:1032600010301349086018480068401C164908606F
:1032700012480068401C114908600D4800680D495B
:10328000884207D90C480078022108430A4908708F
:10329000012081E7084800780121084306490870A9
:1032A000002079E7F001002000010020210000202B
:1032B00008000020EF3F0000200000200C0000204C
:1032C000000000209C0000201400002010B50A48D7
:1032D0000A4908600020087100210848C1600161A6
:1032E0000120064988610846FCF7AEFF002801D09E
:1032F000FCF78AFF10BD0000003002408000002073
:1033000000B587B0142102A8FCF748FF00BF37487A
:10331000406901214904084334494861084640692D
:10332000012149040840019000BF00BF00BF2F48A1
:103330004069490008432D49486108464069012118
:1033400089040840019000BF00BF002228490920DD
:10335000C006FDF702FA002280212648FDF7FDF99C
:103360002348A0380290012003900020049005908B
:1033700002A90920C006FDF7EFF8A0200290012065
:103380000390002004900320059002A90920C006A4
:10339000FDF7E2F840200290212000040390002075
:1033A000049002A90920C006FDF7D6F87B20029000
:1033B000002003900120049002A90E48FDF7CCF8EC
:1033C000802002900120039000200490059002A923
:1033D0000848FDF7C1F8002201210720FDF7F6FD9E
:1033E0000720FDF7E5FD07B000BD0000001002401A
:1033F000B11900000004004810B5184818490860C9
:10340000184848600021164881600121C1600021F0
:10341000016141618161C1610162FDF71BFA002810
:1034200001D0FCF7F1FE00210D48FDF7A3F90028BB
:1034300001D0FCF7E9FE00210948FDF7D2F9002888
:1034400001D0FCF7E1FE00BF074800680121090533
:1034500008430549086000BF10BD0000005400404B
:103460009C000020010010000000014010B50A4837
:103470000A490860002048607F2108488160FF21D8
:10348000C1600021016141618161FEF7FFFA0028FE
:1034900001D0FCF7B9FE10BD00280040000100205B
:1034A00010B50D480D4908600020486000210B4808
:1034B00081600B49C160002101618161FEF782FCDE
:1034C000002801D0FCF7A0FE0448FEF7E3FC00282A
:1034D00001D0FCF799FE10BD002000402001002023
:1034E000FF2F000010B5164816490860E120400281
:1034F0004860002113488160C16001610C21416175
:1035000000218161C161016200200E4948620023EF
:103510001A4619460B48FEF707FA002801D0FCF7B7
:1035200073FE00200849087040220021074801F07E
:1035300068FB012205490348FFF7E2F910BD0000CE
:10354000003801406801002026000020040200200D
:1035500030B50023002400210022012120E01C4876
:10356000405C43400024102207E01948405C1040B2
:10357000002801D0601CC4B25210012AF5DCE0071B
:10358000C00F134D6D5CED07ED0FA84201D0012077
:1035900030BD0F48405C40100D4D6854481CC1B20E
:1035A0000B29DCDB0A48405CC007C00F002801D0B3
:1035B0000320EDE70648405C4010054D68545B1061
:1035C0002846405C984201D00220E1E70020DFE776
:1035D000440200200146002203E0521C08460A383B
:1035E000C1B20A29F9D21007000E0843704770B51E
:1035F0000446002600252068C068402108400028B5
:103600001BD12068C068802108432168C860FDF78D
:10361000ABF8064609E0FDF7A7F8801B7D21C9003D
:10362000884202D90420607701252068C0684021C3
:103630000840002801D1012DEDD1284670BD70B59C
:10364000044600252068C068802188432168C8603E
:103650002068806820210840002807D12046FEF716
:1036600075FB002802D0042060770125284670BD34
:1036700018B5002300930378302B06D14378782BBC
:1036800002D04378582B00D1801C4FE00378412BA7
:1036900002DB0378462B0CDD0378612B02DB037819
:1036A000662B06DD0378302B02DB0378392B00DD37
:1036B00018BD009B002B18D10378302B05DB037855
:1036C000392B02DC0378303B0AE00378412B05DB21
:1036D0000378462B02DC0378373B01E00378573B45
:1036E0000B70009B5B1C00931DE0002300930B7884
:1036F0001B071B0E0B700378302B05DB0378392B6F
:1037000002DC0378303B0AE00378412B05DB0378C9
:10371000462B02DC0378373B01E00378573B0C78FB
:103720001B190B70491C401C531E9AB2002AADD1C4
:1037300000BFBDE710B5FDF7A7FB064800780028DD
:1037400004D004480078401E0249087002F0F2F9E3
:1037500010BD00001F00002000B595B0302109A861
:10376000FCF71CFD00200590069007900890019042
:103770000290039004900A20099001200C901020E0
:103780000D9001201090022011900021129105212E
:10379000C90413910021149109A8FDF7FFFD002829
:1037A00001D0FCF731FD0720059002200690002093
:1037B00007900890012105A8FDF7D6FC002801D04C
:1037C000FCF722FD0848019000200390049001209E
:1037D0004002029001A8FDF71FFC002801D0FCF771
:1037E00013FD15B000BD00002100010010B513202D
:1037F000FDF7B2FB0148FEF70BFC10BD20010020D5
:1038000010B50268214B984202D0214B984205D155
:1038100070241346A3431A464B681A431B4B984225
:103820000BD01B4B984208D01A4B984205D01A4B2C
:10383000984202D0194B984206D103242402134621
:10384000A3431A46CB681A4380241346A3434C690A
:1038500023431A4602608B68C3620B6883620B4B7A
:10386000984205D00C4B984202D00C4B984201D1A3
:103870000B690363012343610369DB07DB0F002B43
:1038800003D003695B085B00036110BD002C01409D
:103890000004004000200040004401400048014076
:1038A0000822416A1140082907D1016849681203BA
:1038B0009143426B114302685160818CC907C90F63
:1038C000002908D001684968012252049143826AA4
:1038D0001143026851600222416A1140022907D156
:1038E00001684968D2039143C26A1143026851607A
:1038F0000422416A1140042907D101684968120471
:103900009143026B1143026851601022416A1140D9
:10391000102907D10168896812029143826B114313
:10392000026891602022416A1140202907D1016874
:10393000896812029143C26B114302689160402270
:10394000416A1140402915D10168496892039143A9
:10395000026C11430268516001221205016C914210
:1039600008D101684968032252059143426C114312
:10397000026851608022416A1140802907D10168A4
:10398000496812039143826C114302685160704789
:10399000F8B50446002184200151FCF7E5FE0546F8
:1039A0002068006808210840082823D137482B46A2
:1039B000002289040090204600F02CFB002819D03A
:1039C00000BF00F0EBFB0646012000F0F9FB206889
:1039D00000688021884321680860304600F0F0FBD1
:1039E00000BF2020E06700BF00217820015500BF04
:1039F0000320F8BD2068006804210840042836D15F
:103A000022482B46002209050090204600F002FBC8
:103A100000282CD000BF00F0C1FB0646012000F0BA
:103A2000CFFB20680068FF212131884321680860AE
:103A3000304600F0C5FB00BF00BF00F0AFFB0646FC
:103A4000012000F0BDFB206880684008400021682C
:103A50008860304600F0B4FB00BF20218020015177
:103A600000BF00217820015500BF0320C1E72020BE
:103A7000E06720218020015100202066606600BFA1
:103A800000217820015500BF0020B2E7FFFFFF01B1
:103A900070B505466C6A00215A200153522001532B
:103AA0002046FEF750FA70BD70B5044600BF00F026
:103AB00075FB0546012000F083FB20680068FF21AC
:103AC0002131884321680860284600F079FB00BF57
:103AD00000BF00F063FB0546012000F071FB206889
:103AE00080684008400021688860284600F068FB34
:103AF00000BF206E012810D100BF00F04FFB05462B
:103B0000012000F05DFB20680068102188432168D7
:103B10000860284600F054FB00BF2021802001519E
:103B200000202066A06670BD70B5044600BF00F09E
:103B300035FB0546012000F043FB2068006840216A
:103B4000884321680860284600F03AFB00BF202027
:103B5000E0670020E0662046FEF73CFA70BDF8B54D
:103B600004465C20075B8020005922287DD1206814
:103B7000868C656D304638402880606D801C60659D
:103B80005A20005B401E81B25A200153005B00287E
:103B900071D100BF00F002FB0090012000F010FB8B
:103BA00020680068FF21213188432168086000985F
:103BB00000F006FB00BF00BF00F0F0FA009001200B
:103BC00000F0FEFA206880684008400021688860A4
:103BD000009800F0F5FA00BF20218020015100205C
:103BE000A06660662068406889040840002811D0FB
:103BF00000BF00F0D3FA0090012000F0E1FA206845
:103C0000006801218906884321680860009800F057
:103C1000D7FA00BF206E012823D10020206600BF04
:103C200000F0BCFA0090012000F0CAFA2068006899
:103C30001021884321680860009800F0C1FA00BF95
:103C40002068C069102108400009002802D0102017
:103C5000216808625820015B2046FEF773F90AE0EC
:103C600003E02046FEF78EF905E020688069082110
:103C7000084321688861F8BDF8B504465C20065BFE
:103C80008020005922287DD12068858CF0B2284000
:103C9000616D0870606D401C60655A20005B401EBD
:103CA00081B25A200153005B002871D100BF00F09F
:103CB00075FA0746012000F083FA20680068FF21AA
:103CC0002131884321680860384600F079FA00BF46
:103CD00000BF00F063FA0746012000F071FA206887
:103CE00080684008400021688860384600F068FA23
:103CF00000BF2021802001510020A066606620685E
:103D0000406889040840002811D000BF00F046FA3E
:103D10000746012000F054FA206800680121890656
:103D2000884321680860384600F04AFA00BF206ED8
:103D3000012823D10020206600BF00F02FFA07469B
:103D4000012000F03DFA20680068102188432168B6
:103D50000860384600F034FA00BF2068C0691021BE
:103D600008400009002802D010202168086258206D
:103D7000015B2046FEF7E6F80AE003E02046FEF786
:103D800001F905E0206880690821084321688861FD
:103D9000F8BD0000FEB50446002000902169A0682F
:103DA000084361690843E16908430290206800689C
:103DB0005449084002990843216808602068406817
:103DC000032109038843E168084321684860A0692A
:103DD0000290206A029908430290206880680B21B3
:103DE00009028843029908432168886000BF464859
:103DF000006B8007800F002806D0012808D0022819
:103E000008D0032808D101E0002707E0022705E0D9
:103E1000042703E0082701E0102700BF00BF00BF10
:103E20000121C903E069884239D1002F06D0022F51
:103E300008D0042F08D0082F0DD109E0FDF750FA63
:103E400005460CE0314D0AE0FDF75CFA054606E058
:103E50000125ED0303E000250120009000BF00BF15
:103E6000002D4AD06A0063685B08D0186168FCF7CF
:103E700037F90646102E0FD3254886420CD8244821
:103E80000F38304001903007400F019908430190EE
:103E900001982168C86030E0012000902DE0002FDB
:103EA00006D0022F08D0042F08D0082F0DD109E02A
:103EB000FDF716FA05460CE0144D0AE0FDF722FA6C
:103EC000054606E00125ED0303E0002501200090F2
:103ED00000BF00BF002D10D061684A085019FCF7E0
:103EE000FFF80646102E06D30948864203D8B0B222
:103EF0002168C86001E0012000900020A066E06613
:103F00000098FEBDF369FFFF0010024000127A0026
:103F1000FFFF0000F8B504460E46154666655820BA
:103F200005535A2005530020A06600BF0121090354
:103F3000A06888420AD12069002803D132495C2058
:103F4000015314E0FF215C20015310E0A068002819
:103F50000AD12069002803D1FF215C20015306E02B
:103F60007F215C20015302E000215C20015300BF4F
:103F700000218420015122218020015100BF00F046
:103F80000DF90746012000F01BF920688068012127
:103F9000084321688860384600F012F900BF01210B
:103FA0000903A068884205D12069002802D117487A
:103FB000A06601E01648A0662069002811D000BF65
:103FC00000F0ECF80746012000F0FAF820680068DD
:103FD000FF212131084321680860384600F0F0F8DD
:103FE00010E000BF00F0DAF80746012000F0E8F822
:103FF000206800682021084321680860384600F0E6
:10400000DFF800BF0020F8BDFF0100005F3B0008A3
:10401000793C0008FFB581B004460D4617460A9E5C
:1040200046E0701C002843D0FCF79EFB0499401A20
:10403000B04201D8002E02D1032005B0F0BD2068A7
:10404000006804210840002832D0802D30D0402D57
:104050002ED02068C06908210840C00800280FD071
:104060000820216808622046FFF71EFD08218420F1
:10407000015100BF00217820015500BF0120DCE77D
:104080002068C0690121C9020840C00A00280FD079
:104090000846216808622046FFF706FD202184209B
:1040A000015100BF00217820015500BF0320C4E763
:1040B0002068C0692840A84201D1012000E000200A
:1040C000B842AED00020B8E710B50248FEF762F95A
:1040D00010BD000068010020F8B582B28BB2040C5C
:1040E0000D0C10465843002126465E43370C36041B
:1040F0008019794116466E43370C36048019794190
:1041000026466E438919F8BD30B47446641E25787E
:10411000641CAB4204D3635D5B00E31830BC1847FA
:104120001D46F8E710B5002819DB1A4A03231B02C5
:10413000D21883089B00D2588307DC0EFF23A340CC
:104140009A438B071B0E8407E40EA3401A43114BBE
:10415000032424021B198408A4001A5118E00E4AF3
:1041600003071B0F083B9B089B00D2588307DC0EFC
:10417000FF23A3409A438B071B0E8407E40EA34042
:104180001A43054B0407240F083CA408A4001A5145
:1041900010BD000000E100E01CED00E0EFF3108036
:1041A000704702E008C8121F08C1002AFAD1704700
:1041B0007047002001E001C1121F002AFBD17047A7
:1041C00080F310887047000010B500201549087072
:1041D00015490870154908701549086015490860A7
:1041E00015490860002280211448FCF7B6FA002225
:1041F00001210920C006FCF7B0FA0022FF2101319D
:104200000920C006FCF7A9FA00200D490870032018
:104210000C49087002200C490870FCF7A5FA0B49FC
:10422000086010BD31000020300000202E0000206A
:10423000340000203C000020400000200004004822
:104240006300002065000020660000204800002078
:1042500010B50020154908701549087015490870F7
:104260001549086015490860154908600022802139
:104270001448FCF772FA002201210920C006FCF75D
:104280006CFA0022FF2101310920C006FCF765FA13
:1042900000200D49087002200C4908700C49087074
:1042A000FCF762FA0B49086010BD000031000020E5
:1042B000300000202E000020340000203C000020B0
:1042C000400000200004004863000020650000203A
:1042D000660000204800002010B51A48007804212C
:1042E0000840002826D00020174908701749087098
:1042F000174908701749086017490860174908608E
:10430000002280211648FCF728FA0022012109200A
:10431000C006FCF722FA0022FF2101310920C00665
:10432000FCF71BFA01200F4908700F4908700F496C
:10433000087001E0FFF748FFFCF716FA0C49086027
:1043400010BD0000200000203100002030000020BF
:104350002E000020340000203C00002040000020FF
:104360000004004863000020650000206600002073
:104370004800002010B592B04222002101A800F0B0
:1043800040FCFF24013420E02004010E6846017146
:1043900044717D23DB001A46A0211048FCF7D0FAB7
:1043A000002801D0FBF730FF7D20C000422301AA86
:1043B000A02100900948FCF73DFC002801D0FBF744
:1043C00023FF0A20FCF704F8403405488442DBD977
:1043D00000200449088012B010BD00009C0000209D
:1043E000BF0F00002C00002010B592B04222002127
:1043F00001A800F006FC0124240320E02004010EA3
:104400006846017144717D23DB001A46A0211048E3
:10441000FCF796FA002801D0FBF7F6FE7D20C000DD
:10442000422301AAA02100900948FCF703FC0028C0
:1044300001D0FBF7E9FE0A20FBF7CAFF403405482C
:104440008442DBD9FEF76EFD002012B010BD0000E3
:104450009C000020BF3F00003EB50546FF2401340C
:1044600000BF5DE02004010E6846017144717D23A8
:10447000DB001A46A0212D48FCF762FA002801D083
:10448000FBF7C2FE7D20C000022301AAA0210090FC
:104490002648FCF7CFFB002801D0FBF7B5FE7D20B6
:1044A000C000042301AAA02100902048FCF70CFBC7
:1044B000002801D0FBF7A8FE042201A9284600F03D
:1044C0007BFB00282BD10622002101A800F099FBDC
:1044D0002004010E6846017144717D23DB001A46F9
:1044E000A0211248FCF72CFA002801D0FBF78CFE23
:1044F0007D20C000062301AAA02100900B48FCF7F4
:1045000099FB002801D0FBF77FFE0A20FBF760FF34
:1045100007480088401E0649088000203EBD241D33
:104520009D20C00084429DD90120F7E79C00002017
:104530002C00002010B50348FDF7ACFC0720FCF769
:1045400037FD10BD2001002010B501201249096877
:104550000862022010490968086204200E490968AF
:10456000086210200C490968086208200A49096895
:1045700008620948FDF796FE0020084908700849BE
:10458000086040220021074800F03BFB012205495A
:104590000148FEF7B5F910BD680100202600002093
:1045A00044000020040200207CB50546FF240134AD
:1045B00000BF32E02004010E6846017144717D2382
:1045C000DB001A46A0211848FCF7BAF9002801D0F0
:1045D000FBF71AFE7D20C000022301AAA021009053
:1045E0001148FCF727FB002801D0FBF70DFE7D20CA
:1045F000C000042301AAA02100900B48FCF764FA34
:10460000002801D0FBF700FE042201A9284600F093
:10461000D3FA002800D17CBD241D9D20C000844217
:10462000C8D90120F7E700009C00002010B592B027
:104630004222002101A800F0E4FA002420E0200436
:10464000010E6846017144717D23DB001A46A021EA
:104650009648FCF775F9002801D0FBF7D5FD7D20C1
:10466000C000422301AAA02100909048FCF7E2FA82
:10467000002801D0FBF7C8FD0A20FBF7A9FE403453
:104680008B488442DBD905208A4908608A48007833
:104690000421084388490870084600780821084327
:1046A0008549087000208549087048708248007864
:1046B000887080480078C8707D23DB001A46A021EE
:1046C0007A48FCF73DF9002801D0FBF79DFD7D20DD
:1046D000C0000423794AA02100907448FCF7AAFA8C
:1046E000002801D0FBF790FD0A20FBF771FE0020A7
:1046F0007349087001217348FCF726F8002805D19A
:104700006F480078012108436D49087002216D4807
:10471000FCF71AF8002805D16948007802210843FF
:104720006749087008216748FCF70EF8002805D192
:1047300063480078042108436149087010216148EA
:10474000FCF702F8002805D15D48007808210843ED
:104750005B49087020215B48FBF7F6FF002805D174
:1047600057480078102108435549087040215548A2
:10477000FBF7EAFF002805D15148007820210843C3
:104780004F49087000204D49087048707D23DB00B8
:104790001A46A0214548FCF7D3F8002801D0FBF7C2
:1047A00033FD7D20C0000223444AA02100903F48F1
:1047B000FCF740FA002801D0FBF726FD7D20C00061
:1047C00010233E4AA02100903848FCF77DF90028CC
:1047D00001D0FBF719FD3948007837490870374890
:1047E00040787D21C900484332490860324800784A
:1047F00010210840002806D12F48007808432E4990
:10480000087001F06DF9FF2001302F49086044E085
:104810002D4800880004000E284908702A480078B6
:1048200048707D23DB001A46A0212048FCF788F859
:10483000002801D0FBF7E8FC7D20C00002231F4ABE
:10484000A02100901948FCF7F5F9002801D0FBF7EA
:10485000DBFC7D20C0000423184AA02100901348EF
:10486000FCF732F9002801D0FBF7CEFC13480078A2
:104870001249497808431149897808430F49C97892
:104880000843002804D011480088401C0F490880C4
:104890000D480068001D0C4908600B4800689D2108
:1048A000C9008842B4D912B010BD00009C0000209D
:1048B000BF3F000028000020200000205002002000
:1048C0002500002000040048680000202C00002083
:1048D0000EB50024002002900025002601900090D3
:1048E000FCF7DEFAFEF738FFFEF70AFDFEF784FD5F
:1048F000FDF773FBFEF7F6FDFEF7E8FCFEF7B6FDED
:10490000FEF7CEFDFFF792FEFEF70CFB00F03AFA41
:10491000FBF72AFF9E49086039E100F02DFF00F007
:1049200031FAFEF701FC9B480078002804D00128EA
:104930002CD0022829D19FE0FBF716FF0199401ADD
:10494000C82804D3FBF710FF019000F0F3FA009899
:1049500000281AD0FBF708FF0099401AFF212D31DB
:10496000884212D300208C49087000900622002152
:104970008A4800F046F906220021894800F041F9F2
:1049800006220021874800F03CF9F1E0FEF7E0FD47
:1049900000286AD1012416E08348005D0007000E5C
:1049A00002908149601C085C0107090F02980818F1
:1049B000C0B202902046E20F12185210774B0299B3
:1049C0009954A01CC4B20A2CE6DB002500240AE09E
:1049D000724880780121A1400840002801D0681C5D
:1049E000C5B2601CC4B2082CF2DB04240AE06B4898
:1049F000C0780121A1400840002801D0681CC5B240
:104A0000601CC4B2082CF2DBE807C00F002801D0FC
:104A1000012500E00025002600240AE05F48C07858
:104A20000121A1400840002801D0701CC6B2601CC2
:104A3000C4B2042CF2DB00240AE0584800790121BA
:104A4000A1400840002801D0701CC6B2601CC4B24E
:104A5000082CF2DBF007C00F002801D0002600E090
:104A6000012602204B49087002E0002049490870E5
:104A70000224082002907BE0002048494871084643
:104A80004078897840184549C978401843490979E0
:104A90004718002F59D0FF208000874255D23E484A
:104AA0000078022838D100203B49087004223C4994
:104AB000491C3A48401C00F07FF8002845D10422E8
:104AC0003849491C3648401C00F076F800283CD193
:104AD00006220021324800F094F8062200213148D5
:104AE00000F08FF83148FDF707FA002801D0FBF7F6
:104AF0008BFB0720FCF73EFA2848401CFFF754FDCB
:104B0000002802D1FFF7E8FB01E0FFF7A1FB2348F3
:104B1000401C00F07FF818E01F48007801280AD1F7
:104B200002201D49087004221C49491C1D48401CD4
:104B300000F05AF809E001201749087004221749CB
:104B4000491C1748401C00F04FF80524082002902B
:104B5000002017490870FF26FF250E490870FBF753
:104B600003FE0090062200210C4800F04AF800BF26
:104B700000BF07480068002809D0FBF7F5FD04498D
:104B80000968401A0B49884201D3FBF73DFBC4E694
:104B900048000020670000204C0000204D0000204D
:104BA0005300002059000020440200202001002072
:104BB00062000020C027090030B503460C460021E2
:104BC0000EE0585C655CA84209D0585C655CA84260
:104BD00001DD012000E000204000401E30BD491CE6
:104BE0009142EED30020F9E7002A00D1704700BFC0
:104BF0000B780370491C401C531E1A1EF8D100BFCD
:104C0000F4E710B5034600BF19705B1C541E221E4A
:104C1000FAD110BDF0B585B00646002400274F48F4
:104C2000FDF740FB102200216846FFF7EAFF012153
:104C300068460170FE2141704948017868468170DC
:104C40000621C170A421017146480178684641716E
:104C500004223146801DFFF7C7FF002505E06846A6
:104C6000405D001984B2681C85B20A2DF7DB211261
:104C700068468172C4720421017300203A490870A9
:104C8000402200213948FFF7BCFF2D230D22694641
:104C90003248FDF774FE012030490968086202209D
:104CA0002E490968086204202C490968086210200E
:104CB0002A490968086208202849096808622748C3
:104CC000FDF7F0FA6423082228492448FDF780FD07
:104CD0002648007801282ED12448407820490978B8
:104CE000884228D121488078FE2824D11F48C078E6
:104CF000012820D11D48007906281CD11B48C07905
:104D0000042818D10024002505E01848405D00194A
:104D100084B2681C85B21548C078001DA842F4DC36
:104D2000124840792112884205D110488079E1B2B9
:104D3000884200D10127002F0BD10A4800780C4986
:104D40000870042231460A48401CFFF74DFFFEF769
:104D50000BFAFFF7F9FB05B0F0BD00006801002079
:104D6000250000206500002026000020040200200D
:104D70000000002010B5012220210920C006FBF709
:104D8000ECFC10BD70B5644800780300FFF7BCF977
:104D900009060D16333B5868A6B9C2000B205F49BF
:104DA000087001205C490870B4E05C480078002875
:104DB00000D0AFE0022058490870ABE0022058490B
:104DC00008700021712000F07FF9554800788000BC
:104DD00043210843C6B20021304600F075F9002196
:104DE0006F2000F071F90021552000F06DF90320CB
:104DF000494908708EE04B480078002802D0042012
:104E00004549087086E00021712000F05DF94448B2
:104E10000078800043210843C6B20021304600F0EC
:104E200053F90021502000F04FF900216B2000F0D1
:104E30004BF906203949087005203749087069E0A8
:104E400036480078002800D064E00021682000F097
:104E50003BF902203149087006202F49087059E0BB
:104E60002E480078002800D054E00021602000F097
:104E70002BF90121062000F027F9054610202840D3
:104E8000002803D008202449087043E001210820AD
:104E900000F01AF9044664003F34A406A40E8021F1
:104EA00021430846002100F00FF90121022000F003
:104EB0000BF90546A54203D008201749087029E0E0
:104EC00000F03EF896201549087007201249087036
:104ED000002015490870154908701BE00F4800783C
:104EE000002803D010480078062809D1FFF742FFB8
:104EF00000200F4908700B4908700220064908700D
:104F000008E000200A49087006490870022002499A
:104F1000087000BF00BF70BD1E0000201F000020F1
:104F200018000020190000201B0000201D00002098
:104F30001A00002001200149087070471900002064
:104F400010B5002220210920C006FBF706FC00BF97
:104F500000BF00BF00BF00BF00BF00BF00BF00BF59
:104F600000BF00BF00BF002280210920C006FBF760
:104F7000F4FB00BF00BF00BF00BF012220210920B9
:104F8000C006FBF7EAFB00BF00BF00BF00BF012265
:104F900080210920C006FBF7E0FB00BF00BF00BF77
:104FA00000BF00BF00BF00BF00BF00BF00BF00BF09
:104FB00000BF002220210920C006FBF7CEFB00BF66
:104FC00000BF00BF00BF00BF00BF00BF00BF00BFE9
:104FD00000BF00BF00BF012280210920C006FBF7EF
:104FE000BCFB012220210920C006FBF7B6FB00BF55
:104FF00000BF00BF00BF00BF00BF00BF00BF00BFB9
:1050000000BF00BF00BF002220210920C006FBF71F
:10501000A4FB00BF00BF00BF00BF00BF00BF00BFB8
:1050200000BF00BF00BF00BF00BF012280210920D8
:10503000C006FBF792FB012220210920C006FBF7E6
:105040008CFB00BF00BF00BF00BF00BF00BF00BFA0
:1050500000BF00BF00BF00BF00BF00222021092009
:10506000C006FBF77AFB00BF00BF00BF00BF00BF58
:1050700000BF00BF00BF00BF00BF00BF00BF0122D4
:1050800080210920C006FBF768FB012220210920AE
:10509000C006FBF762FB00BF00BF00BF00BF00BF40
:1050A00000BF00BF00BF00BF00BF00BF00BF0022A5
:1050B00020210920C006FBF750FB00228021092097
:1050C000C006FBF74AFB10BD70B504460E4600252E
:1050D000002220210920C006FBF73FFB00BF00BFD4
:1050E00000BF00BF00BF00BF00BF00BF00BF00BFC8
:1050F00000BF00BF002280210920C006FBF72DFB66
:1051000000BF00BF00BF00BF012220210920C00650
:10511000FBF723FB00BF00BF00BF00BF01228021BF
:105120000920C006FBF719FB00BF00BF00BF00BF8E
:1051300000BF00BF00BF00BF00BF00BF00BF00BF77
:10514000002220210920C006FBF707FB00BF00BF9B
:1051500000BF00BF00BF00BF00BF00BF00BF00BF57
:1051600000BF00BF80202040002806D001228021FF
:105170000920C006FBF7F1FA05E000228021092092
:10518000C006FBF7EAFA012220210920C006FBF73E
:10519000E4FA00BF00BF00BF00BF00BF00BF00BFF8
:1051A00000BF00BF00BF00BF00BF002220210920B8
:1051B000C006FBF7D2FA00BF00BF00BF00BF00BFB0
:1051C00000BF00BF00BF00BF00BF00BF00BF402046
:1051D0002040002806D0012280210920C006FBF7CC
:1051E000BCFA05E0002280210920C006FBF7B5FAD1
:1051F000012220210920C006FBF7AFFA00BF00BF43
:1052000000BF00BF00BF00BF00BF00BF00BF00BFA6
:1052100000BF00BF002220210920C006FBF79DFA35
:1052200000BF00BF00BF00BF00BF00BF00BF00BF86
:1052300000BF00BF00BF00BF20202040002806D0D4
:10524000012280210920C006FBF787FA05E0002231
:1052500080210920C006FBF780FA012220210920C5
:10526000C006FBF77AFA00BF00BF00BF00BF00BF57
:1052700000BF00BF00BF00BF00BF00BF00BF0022D3
:1052800020210920C006FBF768FA00BF00BF00BF5D
:1052900000BF00BF00BF00BF00BF00BF00BF00BF16
:1052A00000BF10202040002806D0012280210920C4
:1052B000C006FBF752FA05E0002280210920C00653
:1052C000FBF74BFA012220210920C006FBF745FA23
:1052D00000BF00BF00BF00BF00BF00BF00BF00BFD6
:1052E00000BF00BF00BF00BF002220210920C00670
:1052F000FBF733FA00BF00BF00BF00BF00BF00BF15
:1053000000BF00BF00BF00BF00BF00BF082020409B
:10531000002806D0012280210920C006FBF71DFAD3
:1053200005E0002280210920C006FBF716FA0122C1
:1053300020210920C006FBF710FA00BF00BF00BF04
:1053400000BF00BF00BF00BF00BF00BF00BF00BF65
:1053500000BF002220210920C006FBF7FEF900BF94
:1053600000BF00BF00BF00BF00BF00BF00BF00BF45
:1053700000BF00BF00BF04202040002806D001224B
:1053800080210920C006FBF7E8F905E00022802112
:105390000920C006FBF7E1F9012220210920C006FF
:1053A000FBF7DBF900BF00BF00BF00BF00BF00BFBD
:1053B00000BF00BF00BF00BF00BF00BF0022202110
:1053C0000920C006FBF7C9F900BF00BF00BF00BF3E
:1053D00000BF00BF00BF00BF00BF00BF00BF00BFD5
:1053E00002202040002806D0012280210920C0068A
:1053F000FBF7B3F905E0002280210920C006FBF786
:10540000ACF9012220210920C006FBF7A6F900BF54
:1054100000BF00BF00BF00BF00BF00BF00BF00BF94
:1054200000BF00BF00BF002220210920C006FBF7FB
:1054300094F900BF00BF00BF00BF00BF00BF00BFA6
:1054400000BF00BF00BF00BF00BFE007C00F0028C3
:1054500006D0012280210920C006FBF77EF905E075
:10546000002280210920C006FBF777F901222021C4
:105470000920C006FBF771F900BF00BF00BF00BFE5
:1054800000BF00BF00BF00BF00BF00BF00BF00BF24
:10549000002E7DD0002220210920C006FBF75DF9F7
:1054A00000BF00BF00BF00BF00BF00BF00BF00BF04
:1054B00000BF00BF00BF00BF012220210920C0069D
:1054C000FBF74BF900BF00BF00BF00BF00BF00BF2C
:1054D00000BF00BF00BF00BF00BF00BF40210920C8
:1054E000C006FBF731F9002801D0802005430022D7
:1054F00020210920C006FBF730F900BF00BF00BF24
:1055000000BF00BF00BF00BF00BF00BF00BF00BFA3
:1055100000BF012220210920C006FBF71EF900BFB1
:1055200000BF00BF00BF00BF00BF00BF00BF00BF83
:1055300000BF00BF00BF40210920C006FBF704F9EF
:10554000002801D040200543002220210920C00668
:10555000FBF703F900BF00BF00BF00BF00BF00BFE3
:1055600000BF00BF00BF00BF00BF00BF012220215D
:105570000920C006FBF7F1F800BF00BF00BF00BF65
:1055800000BF00BF00BF00BF00BF00BF00BF00E002
:10559000EAE000BF40210920C006FBF7D5F800284B
:1055A00001D020200543002220210920C006FBF75E
:1055B000D4F800BF00BF00BF00BF00BF00BF00BFE6
:1055C00000BF00BF00BF00BF00BF01222021092093
:1055D000C006FBF7C2F800BF00BF00BF00BF00BF9E
:1055E00000BF00BF00BF00BF00BF00BF00BF402121
:1055F0000920C006FBF7A8F8002801D010200543B9
:10560000002220210920C006FBF7A7F800BF00BF39
:1056100000BF00BF00BF00BF00BF00BF00BF00BF92
:1056200000BF00BF012220210920C006FBF795F82A
:1056300000BF00BF00BF00BF00BF00BF00BF00BF72
:1056400000BF00BF00BF00BF40210920C006FBF71C
:105650007BF8002801D008200543002220210920E2
:10566000C006FBF77AF800BF00BF00BF00BF00BF55
:1056700000BF00BF00BF00BF00BF00BF00BF0122CE
:1056800020210920C006FBF768F800BF00BF00BF5B
:1056900000BF00BF00BF00BF00BF00BF00BF00BF12
:1056A00000BF40210920C006FBF74EF8002801D0BA
:1056B00004200543002220210920C006FBF74DF8F5
:1056C00000BF00BF00BF00BF00BF00BF00BF00BFE2
:1056D00000BF00BF00BF00BF012220210920C0067B
:1056E000FBF73BF800BF00BF00BF00BF00BF00BF1B
:1056F00000BF00BF00BF00BF00BF00BF40210920A6
:10570000C006FBF721F8002801D002200543002243
:1057100020210920C006FBF720F800BF00BF00BF12
:1057200000BF00BF00BF00BF00BF00BF00BF00BF81
:1057300000BF012220210920C006FBF70EF800BFA0
:1057400000BF00BF00BF00BF00BF00BF00BF00BF61
:1057500000BF00BF00BF40210920C006FAF7F4FFD8
:10576000002801D001200543002220210920C00685
:10577000FAF7F3FF284670BD10B50024B44800784E
:10578000012877D1B2484078B24909788842F8D1E7
:10579000AF48C078801DAE49085C0428F1D1AE48FE
:1057A000FCF780FD0020AD4908700AE0A848AB492D
:1057B0000978405C001984B2A8480078401CA749C9
:1057C0000870A348C078001DA44909788842EDDC20
:1057D0009F48C078001D9E49085C211288427DD1F7
:1057E0009B48C078401D9A49085CE1B28842F6D1D6
:1057F00001209B490870FE20487096480078887008
:105800000220C870924800790871062048719048BB
:105810000079A0380300FEF777FC241318232E3AF2
:10582000D4D4D4D4D4D4D4D4D4D4D4467C7E8E91FD
:105830009BA4ADB6D4D4D4D4D4D4D4BFC9CFCCD403
:105840008848007886494871BFE003208449C870C1
:105850008548008800124871834800788871B4E058
:105860007B48401DFEF7A0FE002802D015207C4991
:105870004871AAE0DEE003207949C8707B480088BF
:105880000004000E48717948007888719DE011206D
:105890007349C870481DFDF7FFFB022802D170490B
:1058A000C870487191E0022271496948401DFDF7B6
:1058B000DFFE02226E49491E6548C01DFDF7D8FE75
:1058C00002226B49491C62480930FDF7D1FE0222D1
:1058D00068495F480B30FDF7CBFE00E0A8E00222EC
:1058E0006449491C5A480D30FDF7C2FE0222614945
:1058F000891C57480F30FDF7BBFE01225D495E4809
:10590000FCF7A8F901225A49891E5B48FCF73EF9C9
:105910005BE0FAF779FC4E48401DFEF745FE002893
:1059200008D04B48401D00F053FB002802D0152042
:105930004B49487149E0FEF7CFFC46E044484079C6
:105940007D21C90048434D49086000F09BF83CE0C8
:1059500044480078042108434249087000F0C0F828
:1059600033E040480078042188433E49087000F045
:10597000B7F82AE03B480078082108433949087005
:1059800000F0AEF821E03748007808218843354917
:10599000087000F0A5F818E02D48401DFEF75CFDEA
:1059A000002802D015202E4948710EE0FEF7E2FCD7
:1059B0000BE0FEF719FD08E0FDF752FA284948719F
:1059C00003E000202649C87000BF00BF2448C0780B
:1059D00000282DD000240020204908700AE020482B
:1059E0001E490978405C001984B21C480078401CAC
:1059F0001A4908701A48C078001D18490978884269
:105A0000EDDC21121648C078001D154A11541046CD
:105A1000C078401D145404211046C078801D1154D4
:105A20001046C078C21D2D230D490B48FCF7A7FF77
:105A3000FEF78AFD12480068002808D0FAF794FEA5
:105A40000F490968401A642801D3FEF77DFD10BD97
:105A50000402002025000020680100206C000020C6
:105A600060020020200000202C00002014000020F4
:105A700023000020F0010020000100202800002069
:105A8000440000201CB57D21C90013480068FAF7C6
:105A900027FBC4B200216846017101214171847164
:105AA0007D23DB001A46A0210C48FAF749FF0028A5
:105AB00001D0FAF7A9FB7D20C000032301AAA02191
:105AC00000900648FBF7B6F8002801D0FAF79CFBD7
:105AD0000A20FAF77DFC1CBD280000209C00002055
