:020000040800F2
:1000000010050020C9000008691F0008BD1E000877
:1000100000000000000000000000000000000000E0
:100020000000000000000000000000006F1F00083A
:1000300000000000000000006D1F0008711F000894
:10004000DB00000800000000DB000008DB00000807
:10005000DB000008DB000008DB000008DB00000814
:1000600000000000DB000008DB000008DB000008E7
:10007000DB000008DB000008DB00000800000000D7
:10008000DB000008DB00000800000000DB000008C7
:10009000DB000008DB000008DB000008DB000008D4
:1000A000DB000008DB000008DB000008E92800088E
:1000B000DB0000080348854600F0CAF80048004706
:1000C000F92900081005002004488047044800472B
:1000D000FEE7FEE7FEE7FEE7FEE7FEE7791F000822
:1000E000B500000830B50B4601460020202201244F
:1000F00009E00D46D5409D4205D31D469540491B5C
:100100002546954040191546521E002DF1DC30BDA4
:10011000F0B51FB40646002082B005464024019188
:1001200000901BE0019922460F46304600F05DF832
:10013000049A059B801A994110D31046194622460D
:1001400000F076F8361A8F410197224601200021EF
:10015000009F00F06DF838184D4100902046641E55
:100160000028DFDC019B00982946324607B0F0BD2D
:10017000F0B51FB486B00020009001900290069860
:10018000069980B204900798090C020400141143E8
:1001900007900027089D099806913E463C4603902B
:1001A0000398A9B20204000C039004982D0C154387
:1001B00048430021224600F03BF8C7197141103432
:1001C0000E46402CECDB3846029A00F031F8009ADB
:1001D000019B8018009059410298019110300290C3
:1001E0004028CCDB00980BB0F0BD10B5202A04DB12
:1001F0000846203AD040002110BD0B46D340D040E5
:100200002024A21A91400843194610BDD2B201E041
:100210000270401C491EFBD270470022F6E710B561
:1002200013460A4604461946FFF7F0FF204610BD64
:1002300010B5202A04DB0146203A9140002010BD71
:10024000914020239C1A0346E3401943904010BD7F
:10025000064C0125064E05E0E36807CC2B430C3C19
:1002600098471034B442F7D3FFF728FF682B0008F3
:10027000882B000880B582B0EFF3108072B6019031
:10028000064800F059F8064801F0FAFC00F0F4F8CE
:10029000009000F088FCFFE7FEE7C0465400002015
:1002A0008000002080B582B000900098002804D122
:1002B000FFE701A80121017039E00098407D002886
:1002C00007D1FFE7009800210175009800F044F87D
:1002D000FFE700980221417500980079002806D1B7
:1002E000FFE7009800680021C943016104E000981D
:1002F000816800680161FFE70098006880686021FC
:1003000088430099CA6810430968886000980068AB
:1003100080688021884300990A69104309688860D1
:1003200000980121417501A800210170FFE701A893
:10033000007802B080BD000081B000900098006895
:100340001049884206D1FFE70F48016840229143D7
:100350000160FFE701B0704782B00190019800682A
:10036000084988420CD1FFE7FFE7074801684022AF
:10037000114301600068104000900098FFE7FFE71C
:1003800002B07047003002401410024082B000906A
:1003900000982121405C02280DD0FFE7009804213D
:1003A0008163FFE70098202100224254FFE701A863
:1003B000012101701FE00098006801680E2291433E
:1003C0000160009800680168012291430160009873
:1003D000016C8A40C06B4260FFE700982121012236
:1003E0004254FFE70098202100224254FFE701A871
:1003F00000210170FFE701A8007802B0704780B5C6
:1004000082B0019068460021017001982121405C72
:10041000022807D0FFE70198042181636846012183
:10042000017024E00198006801680E229143016088
:100430000198006801680122914301600198016CF4
:1004400013468B40C06B4360019821214254FFE763
:100450000198202100224254FFE70198406B0028B8
:1004600004D0FFE70198416B8847FFE7FFE7684644
:10047000007802B080BD000080B582B00020C1438A
:10048000074A11601060074A11601060064A116047
:100490001060019000F042FB019802B080BDC046A0
:1004A000101002400C1002402810024080B584B0A9
:1004B000039000F071FA0290039801900198401C9B
:1004C000002806D0FFE70948007801990818019034
:1004D000FFE7FFE700F060FA0299401A01998842AD
:1004E00001D2FFE7F6E704B080BDC046040000205B
:1004F0008BB00A90099100200890FFE709980899AD
:10050000C840002800D1A1E00998089901228A403A
:10051000104007900798002800D193E00898032125
:1005200088434B494058069008988007000F0F21D8
:10053000814006980840069006980A990922D2063A
:100540009142059003D1FFE70020049022E00A9831
:10055000F249884203D1FFE70120039017E00A988F
:10056000EF49884203D1FFE7022002900CE00A988D
:10057000EC490322052388420193009201D001989F
:10058000009000980290FFE702980390FFE703981D
:100590000490FFE7049808998907090F8840059996
:1005A000814223D1FFE70798E2490A6882430A6043
:1005B0000798DF490A6882430A600798DB490A689E
:1005C00082430A600798D8490A6882430A600898FB
:1005D0008007000F0F218140069106980899032299
:1005E0009143CD4A8B5883438B50FFE708984000D6
:1005F00003210A4682400A980368934303600898DF
:100600004207D20E0F2393400A9AC00880001018A8
:10061000026A9A430262089840000A4682400A9899
:10062000C3689343C3600898012282400A984368D4
:10063000934343600898400081400A9882688A4347
:100640008260FFE70898401C089057E70BB070479E
:10065000080001408BB00A90099100200890FFE744
:10066000099800680899C840002800D152E109980B
:100670000068089901228A401040079007980028D6
:1006800000D143E10998406803210840012807D0C0
:10069000FFE7099840680321084002282CD1FFE7B2
:1006A0000A988068069008984000032181400698C7
:1006B000884306900998C0680899490088400699BF
:1006C0000143069106980A9988600A984068069046
:1006D000089801218140069888430690099840684F
:1006E00010210840000908998840069901430691A5
:1006F00006980A994860FFE7099840680321084076
:10070000032816D0FFE70A98C068069008984000B2
:1007100003218140069888430690099880680899CB
:100720004900884006990143069106980A99C860D5
:10073000FFE70998406803210840022820D1FFE71D
:100740000A980899C90889004018006A0690089814
:100750004007C00E0F2181400698884306900998F3
:10076000006908994907C90E884006990143069116
:1007700006980A99089AD208920089180862FFE739
:100780000A98006806900898400003210A468240B3
:1007900006989043069009984068084008994900D7
:1007A000884006990143069106980A9908600998BD
:1007B00080798007002800D1A7E0FFE7E5480168BD
:1007C0000122114301600068104005900598FFE781
:1007D000089803218843504940580690089880079C
:1007E000000F0F2181400698884306900A9809213E
:1007F000C906884203D1FFE70020049022E00A984E
:100800004649884203D1FFE70120039017E00A9888
:100810004349884203D1FFE7022002900CE00A9886
:1008200040490322052388420193009201D0019898
:10083000009000980290FFE702980390FFE703986A
:100840000490FFE7049808998907090F88400699E2
:100850000143069106980899032291432E4A885035
:1008600031480068069007980699814306910998D7
:100870008079C006002805D5FFE70798069901434F
:100880000691FFE706982849086028480068069006
:100890000798069981430691099880798006002877
:1008A00005D5FFE70798069901430691FFE70698EB
:1008B0001E4908601E480068069007980699814303
:1008C0000691099880798007002805D5FFE70798E9
:1008D000069901430691FFE70698154908601548F7
:1008E00000680690079806998143069109988079D7
:1008F000C007002805D0FFE7079806990143069135
:10090000FFE706980B490860FFE7FFE70898401CDF
:100910000890A5E60BB070470800014000040048AD
:1009200000080048000C0048080401400C04014085
:10093000040401400004014083B00A46029001A86B
:100940000180029909690088014204D0FFE76846E6
:100950000121017003E0684600210170FFE768464D
:10096000007803B0704710B583B013460C46029070
:1009700001A80180684602700078002805D0FFE7D2
:1009800001A800880299886104E001A80088029902
:100990008862FFE703B010BD374800687047C04663
:1009A00080B584B002900298002804D1FFE703A824
:1009B0000121017044E00298006823490160029817
:1009C000006822490160029841680068416002980D
:1009D000816800688160FFF7DFFF0190FFE7029800
:1009E0000068C0684007002814D0FFE7FFF7D4FF75
:1009F0000199401A28280CD3FFE702980068C068C4
:100A00004007002804D0FFE703A80321017017E086
:100A1000FFE7E4E70298006800690299C968884224
:100A200005D0FFE70298C1680068016104E0029800
:100A300000680C490160FFE703A800210170FFE78F
:100A400003A8007804B080BDCCCC00005555000050
:100A500081B000900098006802490160002001B058
:100A60007047C046AAAA00002A48007802490A68CE
:100A7000101808607047C0460C01002080B582B095
:100A800006480168102211430160032000F008F8B5
:100A9000019000F045F8002002B080BD0020024027
:100AA00080B586B004901A4800681A4909787D22FA
:100AB000D20003901046FFF715FB039902900846F9
:100AC0000299FFF70FFB00F051FE002804D0FFE76A
:100AD00005A80121017017E0049803280CD8FFE74E
:100AE00004990020C24301901046019A00F04CF88E
:100AF00004980949086003E005A80121017003E09A
:100B000005A800210170FFE705A8007806B080BDA8
:100B100000000020040000200800002070470000B2
:100B200082B0FFE70B4801680122114301600068B1
:100B3000104001900198FFE7FFE77F48016801221C
:100B40001207114301600068104000900098FFE711
:100B500002B070471810024080B582B0014601AA69
:100B60001070107840B2009101F0C4FE02B080BD58
:100B700080B582B0014601AA1070107840B2009191
:100B800001F0D2FE02B080BD10B584B0034603ACC4
:100B9000207002910192207840B20299009301F0F6
:100BA000D9FE04B010BD01F019FF000080B586B079
:100BB000049000200390029004988078C0070028D9
:100BC00000D193E001A8002101705B480068C000DB
:100BD000002810D4FFE7FFE75748016801221207F9
:100BE000114301600068104000900098FFE701A8E1
:100BF00001210170FFE751480068C00500281DD49D
:100C0000FFE74E4801680122120211430160FFF71D
:100C1000C3FE0390FFE749480068C00500280CD4D4
:100C2000FFE7FFF7B9FE0399401A652804D3FFE7F1
:100C300005A8032101707BE0EDE7FFE7404800686D
:100C400003210902084002900298002838D0FFE7EB
:100C500002980499496803221202114088422FD059
:100C6000FFE73748016803221202914302910168AD
:100C7000012212041143016001689143016002994D
:100C8000016002A80078C007002818D0FFE7FFF72E
:100C900083FE0390FFE72A480068800700280DD4F0
:100CA000FFE7FFF779FE0399401A9649884204D37B
:100CB000FFE705A8032101703AE0ECE7FFE7FFE753
:100CC0001F480168032212029143049A526811439B
:100CD000016001A80078012807D1FFE716480168E4
:100CE0000122120791430160FFE7FFE704980078B3
:100CF000C007002809D0FFE712480168032291438A
:100D0000049A926811430160FFE704980078800616
:100D1000002809D5FFE70B48016810229143049A87
:100D2000D26811430160FFE705A800210170FFE7C9
:100D300005A8007806B080BD1C100240007000407D
:100D4000201002403010024080B584B00290019122
:100D50000298002804D1FFE703A801210170C7E031
:100D600001986549096801221140884212D9FFE7BC
:100D70006148016801229143019B194301600068A9
:100D800010400199884204D0FFE703A801210170B7
:100D9000AEE0FFE7029800788007002816D5FFE74D
:100DA000029800784007002807D5FFE787480168C8
:100DB0000722120211430160FFE784480168F02214
:100DC0009143029A926811430160FFE7029800780C
:100DD000C007002850D0FFE70298406801280BD1D7
:100DE000FFE7464800688003002804D4FFE703A813
:100DF000012101707CE01BE00298406802280BD1C1
:100E0000FFE73E4800688001002804D4FFE703A8FC
:100E1000012101706CE00AE0384800688007002872
:100E200004D4FFE703A80121017061E0FFE7FFE7B9
:100E30006648016803229143029A52681143016097
:100E4000FFF7AAFD0090FFE7604800680C2108400A
:100E500002994968890088420DD0FFE7FFF79CFDA1
:100E60000099401A2749884204D3FFE703A80321C9
:100E700001703DE0E8E7FFE701981F49096801229A
:100E80001140884212D2FFE71B48016801229143BA
:100E9000019B19430160006810400199884204D009
:100EA000FFE703A80121017022E0FFE70298007824
:100EB000400700280AD5FFE74448016807221202CC
:100EC0009143029AD26811430160FFE700F032F8C3
:100ED0003E490968C9B20909094A515CC8400C4930
:100EE00008600320FFF7DCFD03A900220A70FFE77A
:100EF00003A8007804B080BD00200240001002402A
:100F0000302B000889130000014800687047C04674
:100F10000000002080B5FFF7F7FF2C490968072281
:100F200012021140090A024A515CC84080BDC04605
:100F3000402B000880B588B00020079006900590EF
:100F40000490039021480068079007980C210840FE
:100F50000028029033D0FFE70298042804D0FFE76E
:100F60000298082803D02BE01D4803902BE0079837
:100F70000F218A041040800C154A105C049015481B
:100F8000006808401449085C069007A88078C007EC
:100F900000280CD0FFE7069A114800210191019B1F
:100FA000FFF7B6F8049AFFF7E3F8059004E0049819
:100FB0000A4941430591FFE70598039003E0FFE7E5
:100FC00007480390FFE7039808B080BD0410024073
:100FD000482B00082C100240582B000800093D0047
:100FE00000127A0080B588B006900698002804D1D7
:100FF000FFE707A80121017036E306980078C007D3
:10100000002800D193E0FE4800680C210840042825
:101010000DD0FFE7FA4800680C210840082816D1D7
:10102000FFE7F7480068C003002810D5FFE7F7483E
:1010300000688003002809D5FFE70698406800286B
:1010400004D1FFE707A8012101700DE36EE0FFE77F
:1010500006984068012807D1FFE7EC4801680122A3
:101060001204114301602CE00698406800280BD15F
:10107000FFE7E64801680122130499430160016813
:101080009204914301601BE00698406805280BD14B
:10109000FFE7DE48016801229304194301600168FB
:1010A0001204114301600AE0D848016801221304C8
:1010B000994301600168920491430160FFE7FFE7F3
:1010C000FFE7FFE706984068002817D0FFE7FFF723
:1010D00063FC0590FFE7CD480068800300280CD42E
:1010E000FFE7FFF759FC0599401A652804D3FFE78D
:1010F00007A803210170B7E2EDE716E0FFF74CFC0B
:101100000590FFE7C1480068800300280CD5FFE781
:10111000FFF742FC0599401A652804D3FFE707A8AA
:1011200003210170A0E2EDE7FFE7FFE7FFE7069884
:1011300000788007002876D5FFE7B14800680007EF
:10114000800F00280DD0FFE7AD4800680C21084053
:10115000082820D1FFE7AA480068C00300281AD455
:10116000FFE7AA4800688007002809D5FFE706982E
:10117000C068012804D0FFE707A80121017073E2CD
:10118000A2480168F8229143069A1269D2001143DD
:101190000160FFE746E00698C068002825D0FFE719
:1011A0009A480168012211430160FFF7F5FB0590A1
:1011B000FFE796480068800700280CD4FFE7FFF798
:1011C000EBFB0599401A032804D3FFE707A8032186
:1011D000017049E2EDE78D480168F8229143069AD3
:1011E0001269D200114301601BE0884801680122A6
:1011F00091430160FFF7D0FB0590FFE7834800684B
:10120000800700280CD5FFE7FFF7C6FB0599401AB9
:10121000032804D3FFE707A80321017024E2EDE7C8
:10122000FFE7FFE7FFE706980078000700283ED5B4
:10123000FFE70698C06900281CD0FFE774480168E2
:10124000012211430160FFF7A7FB0590FFE77048FB
:101250000068800700280CD4FFE7FFF79DFB059985
:10126000401A032804D3FFE707A803210170FBE11C
:10127000EDE71BE066480168012291430160FFF73A
:101280008BFB0590FFE7FC480068800700280CD521
:10129000FFE7FFF781FB0599401A032804D3FFE716
:1012A00007A803210170DFE1EDE7FFE7FFE70698FC
:1012B00000784007002800D4BBE002A8002101709C
:1012C000EE480068C000002810D4FFE7FFE7EB48B5
:1012D000016801221207114301600068104001906B
:1012E0000198FFE702A801210170FFE7E4480068C8
:1012F000C00500281DD4FFE7E14801680122120261
:1013000011430160FFF748FB0590FFE7DC480068E8
:10131000C00500280CD4FFE7FFF73EFB0599401AF3
:10132000652804D3FFE707A8032101709CE1EDE7DE
:10133000FFE7FFE706988068012806D1FFE7D1485C
:10134000016801221143016029E0069880680028A5
:101350000AD1FFE7CB48016801229143016001688F
:1013600004229143016019E00698806805280AD19B
:10137000FFE7C448016804221143016001680122AB
:101380001143016009E0BF480168012291430160F7
:101390000168042291430160FFE7FFE7FFE7FFE7F1
:1013A00006988068002818D0FFE7FFF7F5FA059047
:1013B000FFE7B4480068800700280DD4FFE7FFF777
:1013C000EBFA0599401AB049884204D3FFE707A811
:1013D0000321017048E1ECE71EE0FFF7DDFA05901C
:1013E000FFE7A84800688007002814D5FFE7FFF74B
:1013F000D3FA0599401AA44988420BD302E0C046AB
:101400000410024007A8032101702DE100100240E2
:1014100024100240E5E7FFE702A80078012807D181
:10142000FFE7964801680122120791430160FFE738
:10143000FFE706980078C006002864D5FFE7069805
:101440004069012829D1FFE790480168042211432F
:1014500001600168012211430160FFF79DFA0590C8
:10146000FFE78A480068800700280CD4FFE7FFF7F1
:1014700093FA0599401A032804D3FFE707A803212C
:101480000170F1E0EDE781480168F8229143069A86
:101490009269D2001143016034E006984069401D12
:1014A00000280ED1FFE779480168042291430160CA
:1014B0000168F8229143069A9269D20011430160B3
:1014C0001FE0724801680422114301600168012293
:1014D00091430160FFF760FA0590FFE76B480068F1
:1014E000800700280CD5FFE7FFF756FA0599401A48
:1014F000032804D3FFE707A803210170B4E0EDE758
:10150000FFE7FFE7FFE70698006A002800D1A7E0A1
:10151000574800680C210840082871D0FFE706985A
:10152000006A02284ED1FFE75248016801221206E4
:1015300091430160FFF730FA0590FFE74D480068DE
:10154000800100280CD5FFE7FFF726FA0599401A1D
:10155000032804D3FFE707A80321017084E0EDE727
:10156000FFE74B4801680F229143069AD26A114364
:1015700001603F4801683D2212049143069A936A34
:10158000526A134319430160FFE73A480168012298
:10159000120611430160FFF7FFF90590FFE7354898
:1015A0000068800100280CD4FFE7FFF7F5F90599E2
:1015B000401A032804D3FFE707A80321017053E072
:1015C000EDE71CE02B4801680122120691430160FF
:1015D000FFF7E2F90590FFE7264800688001002840
:1015E0000CD5FFE7FFF7D8F90599401A032804D373
:1015F000FFE707A80321017036E0EDE7FFE72EE0E3
:101600000698006A012804D1FFE707A801210170AC
:101610002AE01748006804901D4800680390049869
:101620000121090408400699496A884211D1FFE75F
:1016300003980F2108400699C96A884209D1FFE73B
:1016400004980F21890408400699896A884204D0C9
:10165000FFE707A80121017006E0FFE7FFE7FFE7CA
:1016600007A800210170FFE707A8007808B080BD37
:101670000410024000100240241002401C100240DE
:101680000070004020100240891300003410024016
:101690002C10024080B586B0049003910292019311
:1016A0000498002804D1FFE705A80121017056E045
:1016B0000498C06F002808D1FFE704987821002221
:1016C0004254049800F0F8FAFFE704982421C16717
:1016D0000498006801680122914301600498406AFF
:1016E000002804D0FFE7049800F07CFDFFE7049891
:1016F00000F052FF012804D1FFE705A80121017085
:101700002DE00498006881680122930319438160E9
:10171000049800688068D1038843039908430499BA
:1017200009688860029840050090019800040099BB
:10173000014300910498006800680B490840009933
:101740000843049909680860049800680168114317
:101750000160049800F0F4FD05A90870FFE705A8F2
:10176000007806B080BDC046FFFF00FC80B582B0A7
:101770000190019800F01AFC02B080BD82B00A46C8
:1017800001906846018002B0704780B582B0019038
:10179000FEF770FD02B080BD80B5A8B00F900F9825
:1017A0000068C0690E900F98006800680D900F984F
:1017B000006880680C900E98EE4908400B900B98DA
:1017C000002817D1FFE70EA800788006002810D562
:1017D000FFE70DA80078800600280AD5FFE70F98DC
:1017E000806E002804D0FFE70F98816E8847FFE7DE
:1017F00042E2FFE70B98002800D1FBE00CA800783C
:10180000C007002805D1FFE70D98DB49084200D149
:10181000F0E00EA80078C007002810D0FFE70DA860
:101820004078C00700280AD0FFE70F980068012120
:1018300001620F98842283580B438350FFE70EA860
:1018400000788007002811D5FFE70CA80078C007B2
:1018500000280BD0FFE70F980068022101620F9863
:101860008421425804231A434250FFE70EA800780F
:101870004007002811D5FFE70CA80078C007002812
:101880000BD0FFE70F980068042101620F988421B4
:10189000425802231A434250FFE70EA8007800077F
:1018A000002816D5FFE70DA800788006002806D48A
:1018B000FFE70CA80078C00700280AD0FFE70F98C0
:1018C0000068082101620F98842283580B438350DB
:1018D000FFE70EA840780007002812D5FFE70DA803
:1018E000C078400700280CD5FFE70F980068012159
:1018F000C90201620F988421425820231A434250A2
:10190000FFE70F9884214058002872D0FFE70EA807
:1019100000788006002810D5FFE70DA80078800623
:1019200000280AD5FFE70F98806E002804D0FFE753
:101930000F98816E8847FFE7FFE70F988421405892
:101940000A900F980068806840210840402806D01F
:10195000FFE70AA800782821084241D0FFE70F9846
:1019600000F09CFD0F98006880684006002832D582
:10197000FFE7FFE7EFF31080109010980990012027
:101980001190119880F310880F98006881684022A8
:101990009143816009981290129880F31088FFE7B4
:1019A0000F98406F002811D0FFE70F98406FB349A0
:1019B00041630F98406FFEF722FD002805D0FFE736
:1019C0000F98406F416B8847FFE703E00F98FFF7E0
:1019D000DCFEFFE703E00F98FFF7D7FEFFE707E025
:1019E0000F98FFF7D2FE0F98842100224250FFE7A4
:1019F000FFE741E10F98006E012800D016E10EA824
:101A00000078C006002800D410E10DA80078C006B8
:101A1000002800D40AE10F980068102101620F9895
:101A2000006880684006002800D490E00F98406F5E
:101A30000068406808A908800888002800D185E06F
:101A400008A800880F995822895A884200DB7DE057
:101A500008980F995A2288520F98406F8069202861
:101A600067D0FFE7FFE7EFF310801390139807901C
:101A700001201490149981F310880F9909680A685D
:101A8000000282430A6007981590159880F3108829
:101A9000FFE7FFE7EFF310801690169806900120FD
:101AA0001790179981F310880F9909688A68824303
:101AB0008A6006981890189880F31088FFE7FFE76F
:101AC000EFF3108019901998059001201A901A9838
:101AD00080F310880F9800688168402291438160EC
:101AE00005981B901B9880F31088FFE70F988021C2
:101AF000202242500F9800210166FFE7EFF310808B
:101B00001C901C98049001201D901D9880F3108853
:101B10000F980068016810229143016004981E909C
:101B20001E9880F31088FFE70F98406FFEF72EFC99
:101B3000FFE70F98022141660F985821415A5A2217
:101B4000825A891A89B2FFF719FEFFE794E00F98CD
:101B50005821415A5A22805A081A03A908800F981E
:101B6000805A002861D0FFE703A8008800285CD0D5
:101B700004E0C0460F08000020010004FFE7EFF377
:101B800010801F901F98029001202090209880F3D1
:101B900010880F9800680168092252019143016082
:101BA00002982190219880F31088FFE7FFE7EFF378
:101BB000108022902298019001202390239981F394
:101BC00010880F9909688A6882438A600198249076
:101BD000249880F31088FFE70F988021202242503C
:101BE0000F98002101660F988166FFE7EFF31080E0
:101BF00025902598009001202690269880F3108843
:101C00000F980068016810229143016000982790A6
:101C1000279880F31088FFE70F98022141660F98FC
:101C200003A90988FFF7AAFDFFE725E00EA80078C1
:101C30000006002810D5FFE70DA800780006002850
:101C40000AD5FFE70F98C06E002804D0FFE70F9871
:101C5000C16E8847FFE70FE00EA800784006002815
:101C60000AD5FFE70DA800784006002804D5FFE755
:101C70000F9800F06BFCFFE728B080BD7B1F0008C9
:101C800080B582B0019001980068B649884210D1B1
:101C9000FFE72C480168012292039143016009206B
:101CA000C0060B214902FEF723FC1B20FEF754FF60
:101CB000FFE702B080BDC04680B58AB00990002021
:101CC0000890079006900590049009980068A5492F
:101CD000884235D1FFE7FFE71A48016801229203E5
:101CE000114301600068104003900398FFE7FFE78D
:101CF0001548016801225204114301600068104038
:101D000002900298FFE70B20400204900220059009
:101D10000020069003210791012108910921C9069D
:101D200004AA019008461146FEF794FC1B2000907F
:101D30000199019AFEF728FF0098FEF719FFFFE7C7
:101D40000AB080BD181002401410024010B58AB0CD
:101D500014460890079106A8028005930898C06F62
:101D6000202800D09BE00798002805D0FFE706A8B0
:101D70000088002804D1FFE709A80121017092E042
:101D80000898806801210903884210D1FFE708986C
:101D9000006900280BD1FFE707A80078C0070028DA
:101DA00004D0FFE709A8012101707CE0FFE7089853
:101DB00084210022425008982121C167FEF7ECFDE2
:101DC0000290069808995022885206980899522243
:101DD0008852089880680121090388420AD1FFE7E8
:101DE00008980069002805D1FFE7002004900798B3
:101DF000039004E00798049000200390FFE7FFE7BA
:101E000008985221405A002830D0FFE70898029BDA
:101E1000059900918021002200F0E0FC002807D005
:101E2000FFE708982021C16709A8032101703AE063
:101E3000049800280BD1FFE7039800881C4908404C
:101E40000899096808850398801C039008E00498A5
:101E500000780899096808850498401C0490FFE7F9
:101E600008985221425A521E4252C9E70898029BD2
:101E7000059900914021002200F0B0FC002807D015
:101E8000FFE708982021C16709A8032101700AE033
:101E900008982021C16709A80021017003E009A862
:101EA00002210170FFE709A800780AB010BDC04602
:101EB000FF01000081B0009001B07047FFE7FEE72E
:101EC00080B509480949016000210171C1600161C3
:101ED00001218161FEF7E6F9002803D0FFE7FEF754
:101EE000C9F9FFE780BDC046540000200030024021
:101EF00080B5084808490160032141600749C16075
:101F00008160FEF74DFD002803D0FFE7FEF7B2F930
:101F1000FFE780BD7000002000300040FF0F000090
:101F200080B582B00E480F490160E121490241604D
:101F300000218160C16001610C2242618161C16147
:101F4000016241620191019A019BFFF7A3FB002806
:101F500003D0FFE7FEF78EF9FFE702B080BDC04671
:101F60008000002000380140FFE7FEE7704770471F
:101F700080B5FEF779FD80BD704780B582B00190D5
:101F80000198406A009000985A210022425200981D
:101F9000522142520098FFF7F8FB02B080BD02E0E8
:101FA00008C8121F08C1002AFAD1704780B584B052
:101FB00002900298401E000E002803D0FFE7012087
:101FC000039013E00298401E0A4908600020C143B4
:101FD000032201900846114600F0BCFC0648019916
:101FE00001600648072202600391FFE7039804B0EE
:101FF00080BDC04614E000E018E000E010E000E022
:102000000000000000000000131023410000000841
:1020100080B590B000200F900E900D900C900B901A
:10202000FFE7494801680122D204114301600068BA
:1020300010400A900A98FFE7FFE743480168012231
:102040009205114301600068104009900998FFE76C
:10205000FFE73D4801680122520411430160006816
:10206000104008900898FFE7FFE737480168012211
:102070009204114301600068104007900798FFE741
:1020800032481F21002206900592FEF76CFC2020AA
:102090000121069A04901046049B03911946039A65
:1020A000FEF761FC072040030B9003200C9005997C
:1020B0000D91274A0BAB0290104619460193FEF78B
:1020C000C9FAC3200B9002980C9005990D912148F4
:1020D0000199FEF7BFFA20480B9002980C900599E1
:1020E0000D910922D0060199FEF7B4FA17200B9042
:1020F00003980C9005990D910E9106980199FEF7A1
:10210000A9FA16480B9002980C9005990D91069823
:102110000199FEF79FFA08200B9005980C900399FF
:102120000D910E9006980199FEF794FA04980B9081
:1021300011210C9105990D91029A0E920698019920
:10214000FEF788FA10B080BD141002400004004869
:102150000008004800140048FF890000C0FF00008C
:1021600080B596B00AA830210190FEF756F80020FD
:1021700009900890079006900590049003900290B3
:102180000A210A9101210D9110220E9211911290B3
:102190000198FEF727FF002803D0FFE7FEF76AF853
:1021A000FFE707200690002007900890099006A9F5
:1021B000009008460099FEF7C7FD002803D0FFE70E
:1021C000FEF758F8FFE7012002900020049002A8D3
:1021D000FEF7ECFC002803D0FFE7FEF74BF8FFE723
:1021E00016B080BD81B0009000982421405C0007AB
:1021F00000280CD5FFE70098006840680121C9035A
:10220000884300994A6B104309684860FFE70098CB
:102210002421405CC00700280CD0FFE7009800682C
:10222000406801214904884300998A6A104309687B
:102230004860FFE700982421405C800700280CD507
:10224000FFE700980068406801210904884300996D
:10225000CA6A104309684860FFE700982421405C7F
:10226000400700280CD5FFE700980068406801216E
:102270008904884300990A6B104309684860FFE7A6
:1022800000982421405CC00600280CD5FFE7009888
:102290000068806801210903884300998A6B104314
:1022A00009688860FFE700982421405C80060028C8
:1022B0000CD5FFE700980068806801214903884336
:1022C0000099CA6B104309688860FFE700982421D1
:1022D000405C400600281DD5FFE700980068406874
:1022E000012109058843009A136C18431268506055
:1022F0000098006C88420CD1FFE7009800684068A5
:1023000003214905884300994A6C104309684860D5
:10231000FFE7FFE700982421405C000600280CD569
:10232000FFE70098006840680121C90488430099CC
:102330008A6C104309684860FFE701B070470000ED
:1023400080B590B005900598842100224250FEF798
:1023500023FB04900598006800680007002831D529
:10236000FFE70598049B4C49009101214905002293
:1023700000F034FA002824D0FFE7FFE7EFF31080E5
:1023800007900798039001200890089880F3108820
:1023900005980068016880229143016003980990C4
:1023A000099880F31088FFE705982021C167FFE7AF
:1023B0000598782100224254FFE706A80321017006
:1023C00065E0FFE70598006800684007002849D5E8
:1023D000FFE70598049B30490091012189050022FF
:1023E00000F0FCF900283CD0FFE7FFE7EFF3108096
:1023F0000A900A98029001200B900B9880F31088A5
:102400000598006801680922520191430160029811
:102410000C900C9880F31088FFE7FFE7EFF3108033
:102420000D900D98019001200E900E9981F3108867
:10243000059909688A6882438A6001980F900F980D
:1024400080F31088FFE70598802120224250FFE7A3
:102450000598782100224254FFE706A80321017065
:1024600015E0FFE705982021C1670598802281507B
:1024700005980021016605984166FFE705987821D7
:1024800000224254FFE706A800210170FFE706A8DA
:10249000007810B080BDC046FFFFFF018DB00390F3
:1024A000FFE7EFF31080049004980290012005905C
:1024B000059880F31088039800680168092252018A
:1024C0009143016002980690069880F31088FFE718
:1024D000FFE7EFF310800790079801900120089024
:1024E000089981F31088039909688A6882438A6091
:1024F00001980990099880F31088FFE70398006E0F
:10250000012818D1FFE7FFE7EFF310800A900A983F
:10251000009001200B900B9880F3108803980068BE
:10252000016810229143016000980C900C9880F390
:102530001088FFE7FFE7039880212022425003988C
:1025400000210166039881660DB0704780B586B0A2
:102550000290FFE7EFF310800390039801900120B1
:102560000490049880F31088029800680168402263
:102570009143016001980590059880F31088FFE76A
:1025800002982021C16702980021C1660298FFF7D6
:1025900091FC06B080BD000080B58AB0099004A807
:1025A0000021017009988168026911434269114351
:1025B000C069014308910998006800688249084091
:1025C00008990843099909680860099800684068F3
:1025D0000321090388430999CA68104309684860C0
:1025E0000998806908900998006A08990143089140
:1025F0000998006880680B210902884308990843FC
:10260000099909688860FFE7099800686F4988425E
:1026100023D1FFE76F480068032108400328029098
:1026200016D80298784400794000874401090D05C6
:1026300006A8002101700FE006A8022101700BE03E
:1026400006A80421017007E006A80821017003E034
:1026500006A810210170FFE70EE0099800685C49A8
:10266000884204D1FFE706A80021017003E006A814
:1026700010210170FFE7FFE7FFE70998C06901211A
:10268000C903884251D1FFE706A8007808280190C5
:1026900018D801987844007940008744041308133F
:1026A0000B1313130F00FEF735FC039010E04A489C
:1026B00003900DE0FEF73EFC039009E00120C0030B
:1026C000039005E00020039004A801210170FFE7BA
:1026D0000398002828D0FFE703984000099949682B
:1026E0004A088018FDF7FEFC05900598102816D3BF
:1026F000FFE705A84088002811D1FFE705980F21C2
:10270000884307A9088005980E2210404008079AC0
:1027100002430A80088809990968C86003E004A890
:1027200001210170FFE7FFE745E006A800780828CF
:10273000009019D80098C04678440079400087443A
:10274000041308130B1313130F00FEF7E3FB03909E
:1027500010E0214803900DE0FEF7ECFB039009E048
:102760000120C003039005E00020039004A801218C
:102770000170FFE7039800281CD0FFE70398099930
:1027800049684A088018FDF7ADFC059005981028A7
:102790000BD3FFE705A84088002806D1FFE705A86E
:1027A000008809990968C86003E004A80121017044
:1027B000FFE7FFE7FFE70998002181660998C166F6
:1027C00004A800780AB080BDF369FFFF003801401B
:1027D000004400403010024000127A00B0B586B0CC
:1027E0000A9C15460490039102A802700193FFE72A
:1027F00004980068C06903990840401A4142484162
:1028000002A90978884266D1FFE70A98401C00288F
:1028100060D0FFE7FEF7C0F80199401A0A99884294
:1028200004D8FFE70A98002804D1FFE705A8032190
:10283000017054E00498006800684007002848D5FB
:10284000FFE70398802844D0FFE70398402840D052
:10285000FFE704980068C06908210840C008012803
:1028600016D1FFE7049800680821016204980091DE
:10287000FFF714FE04988421009A4250FFE7049861
:10288000782100224254FFE705A80121017026E0CB
:1028900004980068C0690121C9020840C00A0128E3
:1028A00016D1FFE7049800680121C902016204986B
:1028B000FFF7F4FD0498842120224250FFE704989A
:1028C000782100224254FFE705A80321017006E0A9
:1028D000FFE7FFE78CE705A800210170FFE705A8E7
:1028E000007806B0B0BD000080B58B48FEF754FFFD
:1028F00080BDC04681B001466A461070107840B273
:1029000000280DD4FFE7684600781F210840012108
:10291000814004480160BFF34F8FBFF36F8FFFE723
:1029200001B0704780E100E081B001466A46107056
:10293000107840B2002809D4FFE7684600781F21CC
:1029400008400121814002480160FFE701B0704763
:1029500000E100E070B582B0024601AB1870009152
:10296000187840B2002817D4FFE701A8017849B2CF
:102970000322D2431140184BC958007840B2840753
:10298000E40EFF25A540A943009DAD01EDB2A54091
:1029900029431040C1501AE001A801780F221140CC
:1029A00008390323DB4319400A4C0959007840B227
:1029B0008507ED0EFF26AE40B143009EB601F6B28C
:1029C000AE4031431040083818400151FFE702B0D3
:1029D00070BDC0461CED00E000E400E0BFF34F8F87
:1029E000034804490160BFF34F8FFFE700BFFDE7D5
:1029F0000CED00E00400FA0580B588B000200790D7
:102A0000FEF73CF80690FFF7ABFBFFF701FBFFF783
:102A10006FFAFFF785FAFFF753FAFFE73A48082104
:102A2000FDF78AFF00286BD1FFE737480421012218
:102A300005900492FDF797FF05980499049AFDF715
:102A400092FF324804990170FF224270FE22827088
:102A5000C170D12202712E48002202802D480270DE
:102A6000FFE72C4800782949C978091D88420EDA09
:102A7000FFE7284800782549085C25490A8810188E
:102A80000880FFE723480178491C0170E9E72048E6
:102A900041781E4A5171008890710420D0711A4902
:102AA0000122039008460399FDF75DFF19480A21AA
:102AB0000170FFE71848154908222D23FFF746F952
:102AC000C82102900846FDF7F1FC12480178491E22
:102AD0000170FFE70F4800780028EBD1FFE70A48B4
:102AE0000421002201900092FDF73DFF0121019891
:102AF000009AFDF738FF7D200001FDF7D7FCFFE7C6
:102B00000648FDF7A5FF89E70004004810000020F3
:102B100050000020080100208000002070000020EC
:102B20007047002001E001C1121F002AFBD170474D
:102B3000000000000000000001020304060708096D
:102B4000000000000102030402030405060708094F
:102B50000A0B0C0D0E0F10100102030405060708E6
:102B6000090A0B0C0D0E0F10882B00080000002026
:102B7000100000009E1F0008982B00081000002085
:102B800000050000222B000800127A00010000005E
:082B9000040000000000000039
:04000005080000B53A
:00000001FF
